:100000000C9460020C948F020C948F020C948F025B
:100010000C948F020C948F020C948F020C948F021C
:100020000C948F020C948F020C9459240C948F0220
:100030000C948F020C948F020C948F020C948F02FC
:100040000C94AA1B0C948F020C94491E0C94D31E82
:100050000C948F020C948F020C948F020C948F02DC
:100060000C948F020C948F020C948F020C948F02CC
:100070000C948F020C948F020C94841E0C940D1F10
:100080000C948F020C948F020C948F02B71CEB1C03
:10009000BC1CC21CC81CEB1CEB1CCD1CD71CE11CDF
:1000A000091D1A1DFE1C011D051D1A1D1A1D0D1D01
:1000B000111D151D7475726E696E67206261636B28
:1000C000006772616262696E6720696E2074757282
:1000D0006E20616E6420726561636800696E697488
:1000E00069616C207475726E002053523A2000537F
:1000F0004C3A20002046523A2000464C3A2000203C
:1001000000200020005E003E003C0076003E005EC5
:10011000003C0076003F2000522000462000542082
:10012000005320002052413A200052523A20002031
:100130004C413A20004C523A200053544152542032
:10014000746F20626567696E206C6F6F7000535426
:1001500041525420746F20636F6E74696E75650030
:10016000626561636F6E205153442074657374003F
:10017000535441525420746F20636F6E74696E75CE
:100180006500706173732E2051534420746573743D
:1001900000535441525420746F20636F6E74696E23
:1001A0007565005152442074657374004E4F2043AE
:1001B0004F4C4C4953494F4E00434F4C4C495349C7
:1001C0004F4E2100535441525420746F20636F6E80
:1001D00074696E756500636F6C6C6973696F6E200E
:1001E00073656E736F72207465737400535441525B
:1001F0005420746F20636F6E74696E75650073743C
:1002000065707065722074657374207269676874B4
:1002100000535441525420746F20636F6E74696EA2
:1002200075650073746570706572207465737420F1
:100230006C656674006465746563742073776974B3
:100240006368006D69737320737769746368006312
:100250006174636820737769746368005354415212
:100260005420746F20636F6E74696E7565007465D9
:10027000737420636C617720737769746368657346
:1002800000535441525420746F20636F6E74696E32
:100290007565007374657070657220746573742081
:1002A000726967687400535441525420746F20631C
:1002B0006F6E74696E756500737465707065722019
:1002C00074657374206C65667400535441525420F5
:1002D000746F20636F6E74696E75650053544F5070
:1002E00020746F206F70656E005354415254207417
:1002F0006F20636F6E74696E75650073657420633B
:100300006C617720746F206D6964706F696E740022
:10031000535441525420746F20636F6E74696E752C
:10032000650061726D20676561722075707761721A
:100330006400535441525420746F20636F6E74698B
:100340006E756500646973656E67616765206172CB
:100350006D206765617200535441525420746F20C0
:10036000636F6E74696E7565006C656674206D6F81
:10037000746F7220666F72776172640053544152D9
:100380005420746F20636F6E74696E7565007269B6
:10039000676874206D6F746F7220666F7277617218
:1003A00064006772616262696E67206F6E206C65BF
:1003B0006674006772616262696E67206F6E207298
:1003C000696768740073746F7070656421005354BA
:1003D0004F503A2064656275670053544152543A55
:1003E00020636F6D70657465000000000000000000
:1003F00000000000000000000000000000000000FD
:1004000000000000000103040500000505090A00C2
:1004100000000000000000000000000000000102D9
:1004200004081020408001020408102040800102CE
:1004300004081020408001020408102040800102BE
:1004400004081020408001020408102040800102AE
:100450000408100404040404040404030303030351
:100460000303030101010101010101020202020271
:100470000202020505050505050505060606060630
:100480000606060707070707000039003600330095
:10049000300021002000630000003B0038003500E0
:1004A000320023006200650000003A00370034008B
:1004B00031002200610064004914CD1F62267C14C3
:1004C00011241FBECFEFD0E1DEBFCDBF11E0A0E011
:1004D000B1E0E0EEF5E500E00BBF02C007900D9241
:1004E000A23CB107D9F724E0A2ECB1E001C01D9213
:1004F000A834B207E1F714E0CEEBD4E000E006C088
:1005000022970109FE010BBF0E94B72AC83BD10701
:1005100080E00807A9F70E94BF220C9417280C94CA
:10052000000061E082E20E941B1D61E08FE10E94F9
:100530001B1D80E090E0A2E0B3E48093E40190937F
:10054000E501A093E601B093E70180E090E0A6E129
:10055000B3E48093E0019093E101A093E201B093B2
:10056000E3011092D0011092D1011092D2011092A9
:10057000D30108958F929F92AF92BF92CF92DF9254
:10058000EF92FF9287E00E947E1CBC01882777FDD6
:100590008095982F0E941E2920E030E040EA50E428
:1005A0000E94D22920E030E040E85AE30E94D2299C
:1005B0006B017C0120E030E040E450E40E94D2294D
:1005C00020E030E040E251E40E941A2822E630EDBB
:1005D00042E053E40E94D2294B015C0120E030E06C
:1005E00040EA50E4C701B6010E941A289B01AC0101
:1005F000C501B4010E94832820E030E040E752E4C6
:100600000E941B28FF90EF90DF90CF90BF90AF909B
:100610009F908F9008954F925F926F927F928F92EA
:100620009F92AF92BF92CF92DF92EF92FF92CF93C1
:10063000DF9300D000D0CDB7DEB70E94BA0260933E
:10064000CC017093CD018093CE019093CF010E9495
:10065000001C0E941C294B015C016093C80170932F
:10066000C9018093CA019093CB012091E40130919C
:10067000E5014091E6015091E7016091CC01709154
:10068000CD018091CE019091CF010E941A286B017B
:100690007C016093DC017093DD018093DE01909317
:1006A000DF014090D0015090D1016090D201709054
:1006B000D3012091C4013091C5014091C6015091F0
:1006C000C701C501B4010E941A2869837A838B830C
:1006D0009C83A3019201C701B6010E941A282981B7
:1006E0003A814B815C810E94832820E034E244E718
:1006F00059E40E94D2294B015C016093D8017093A8
:10070000D9018093DA019093DB01A3019201C70123
:10071000B6010E941B2820E030E040E05FE30E9429
:10072000D22929813A814B815C810E94D22920E023
:1007300034E244E759E40E9483282091D4013091A7
:10074000D5014091D6015091D7010E941B282B0161
:100750003C016093D4017093D5018093D6019093AE
:10076000D70120E030E040E451E4C701B6010E9427
:10077000D22920E030E0A9010E941B286B017C01F6
:1007800020E030E040E05FE3C501B4010E94D229DF
:100790009B01AC01C701B6010E941B286B017C01C3
:1007A00020E030E0A901C301B2010E94D2299B01DF
:1007B000AC01C701B6010E941B280E94EB286130E2
:1007C0002FEF72078207920724F461E07FEF8FEF2B
:1007D0009FEFAB01BC014F3F51056105710529F049
:1007E00024F04FEF50E060E070E061E070E08AE2FA
:1007F00094E00E94FF256091E0017091E1018091F9
:10080000E2019091E3010E94EB2889E294E00E94CA
:100810008C258091C8019091C901A091CA01B09125
:10082000CB018093C4019093C501A093C601B093FE
:10083000C7018091DC019091DD01A091DE01B091B2
:10084000DF018093D0019093D101A093D201B093A6
:10085000D3018091C2019091C30169E170E00E94CF
:10086000492A892B31F481E090E09093C301809371
:10087000C2018091C2019091C30101969093C3017E
:100880008093C2010F900F900F900F90DF91CF9146
:10089000FF90EF90DF90CF90BF90AF909F908F90A0
:1008A0007F906F905F904F900895CF92DF92EF927C
:1008B000FF920E94F41B6B017C0180E090E0A0EFAE
:1008C000B2E48093E4019093E501A093E601B09334
:1008D000E70180E090E0A0E7B2E48093E00190932C
:1008E000E101A093E201B093E3010E94F41B6C19B3
:1008F0007D098E099F09643F71408105910518F4B7
:100900000E940B03F2CF80E090E0A0EFB2E480936E
:10091000E4019093E501A093E601B093E70180E044
:1009200090E0A8ECB2E48093E0019093E101A09301
:10093000E201B093E3010E94F41B6C197D098E095A
:100940009F09683E73408105910518F40E940B03CE
:10095000F2CF8091E801882389F080E090E0A7E061
:10096000B3E48093E4019093E501A093E601B09392
:10097000E70180E090E0AAE2B3E410C080E090E0FC
:10098000A2E0B3E48093E4019093E501A093E60133
:10099000B093E70180E090E0A6E1B3E48093E0014A
:1009A0009093E101A093E201B093E301FF90EF90F7
:1009B000DF90CF90089544E75FEF62E070E08AE255
:1009C00094E00E94FF251092E8016EE571E080E05E
:1009D00090E00E94241C40E050E062E070E08AE277
:1009E00094E00C94FF25CF92DF92EF92FF928CE07F
:1009F0000E948A1D892B09F445C08DE00E948A1D42
:100A0000892B09F43FC04EEB50E062E070E08AE2CF
:100A100094E00E94FF250E94F41B6B017C010E9460
:100A20000B038CE00E948A1D892B99F08DE00E94B7
:100A30008A1D892B19F41092E8010EC00E94F41B44
:100A40006C197D098E099F09613D774081059105EB
:100A500030F381E08093E8018091E801882361F020
:100A60004CE850E062E070E08AE294E0FF90EF90A2
:100A7000DF90CF900C94FF25FF90EF90DF90CF9008
:100A80000C94DB04FF90EF90DF90CF900895CF920D
:100A9000DF92EF92FF920F931F93CF93DF938B011F
:100AA000882311F060E001C061E082E20E94541DE1
:100AB0000E94F41B6B017C01C0E0D0E0C017D1079D
:100AC0001CF50E94F41B6C197D098E099F096B307F
:100AD00071058105910530F00E940B030E94F41B03
:100AE0006B017C0161E08FE10E94541D80EB94E07A
:100AF0000E944A1C60E08FE10E94541D80EB94E04C
:100B00000E944A1C2196DACFDF91CF911F910F915D
:100B1000FF90EF90DF90CF9008958F929F92AF92C9
:100B2000BF92CF92DF92EF92FF92CF93C82FF62E13
:100B30008CE294E00E9467236CED70E08CE294E01C
:100B40000E94AB2068EA72E08C2F0E9447058CE27D
:100B500094E00E94672361EC70E08CE294E00E94D4
:100B6000AB20FF2009F4A5C040E050E060E772E44C
:100B70004093E0015093E1016093E2017093E3013F
:100B800040E050E068EC72E44093E4015093E501EA
:100B90006093E6017093E7010E94F41B6B017C01F6
:100BA0000E94F41B6C197D098E099F096B3F71052A
:100BB0008105910508F453C0C090E401D090E5018F
:100BC000E090E601F090E70120E030E048EC52E4EC
:100BD000C701B6010E94CE2918168CF420E030E03F
:100BE00040EA50E4C701B6010E941A286093E4016C
:100BF0007093E5018093E6019093E7012CC080900B
:100C0000E0019090E101A090E201B090E30120E0CA
:100C100030E040E253E4C501B4010E947F2887FF21
:100C20001AC020E030E048EC52E4C701B6010E944F
:100C30007F28181684F020E030E040E251E4C5013E
:100C4000B4010E941B286093E0017093E10180933E
:100C5000E2019093E3010E94F41B6B017C0120E010
:100C600030E048EC52E46091E4017091E50180913C
:100C7000E6019091E7010E947F28181684F020E099
:100C800030E040E253E46091E0017091E101809135
:100C9000E2019091E3010E94CE2987FF07C065E041
:100CA00070E080E090E00E94241C7ACF0E94F30460
:100CB0008CC040E050E068EC72E44093E001509357
:100CC000E1016093E2017093E30140E050E060EFE6
:100CD00072E44093E4015093E5016093E601709360
:100CE000E7010E94F41B6B017C010E94F41B6C194C
:100CF0007D098E099F09643F71408105910518F4B3
:100D00000E940B03F2CF40E050E060E772E44093B2
:100D1000E0015093E1016093E2017093E30140E050
:100D200050E060EF72E44093E4015093E50160937A
:100D3000E6017093E7010E94F41B6C197D098E098E
:100D40009F09683E73408105910518F40E940B03CA
:100D5000F2CF40E050E066EE72E44093E40150933D
:100D6000E5016093E6017093E70140E050E060E246
:100D700071E44093E0015093E1016093E2017093CC
:100D8000E3010E94F41B6C197D098E099F096C3DDB
:100D9000754081059105B8F40E940B038EE00E9416
:100DA0008A1D892B71F70E94BA0220E030E040EAE8
:100DB00050E40E941B286093E4017093E501809346
:100DC000E6019093E7010E94DB040E9455048CE247
:100DD00094E00E94672364EB70E08CE294E00E9450
:100DE000AB2068EA72E081E08C27CF91FF90EF9012
:100DF000DF90CF90BF90AF909F908F900C9447055D
:100E0000BF92CF92DF92EF92FF920F931F93CF93F7
:100E1000DF938FEF9FEF9093EA018093E9018BE2DC
:100E2000C82E81E0D82E9BEEE92E91E0F92ECDEE72
:100E3000D1E000E010E0BB24B394F6018081F2E041
:100E4000CF0ED11C0E948A1D892B19F41982188299
:100E500008C088819981853091051CF40196998399
:100E6000888389919991F701059734F0B0821093A6
:100E7000EA010093E90101C010820F5F1F4FFFEFED
:100E8000EF1AFF0A02301105C1F6DF91CF911F91D1
:100E90000F91FF90EF90DF90CF90BF9008958091D9
:100EA000EB0108950F931F93CF93DF9310922502C8
:100EB0001092240210922302109222021092210218
:100EC00010921D021092F10110921E021092F20176
:100ED00010921F021092F301109220021092F4015E
:100EE00045E152E02DE032E0C5E0D2E0ADEFB1E007
:100EF00005EF11E084E090E061E070E0FA0111920A
:100F00001192AF01F901119211929F011992199258
:100F10001D921D92F801619371938F01019771F7F2
:100F2000DF91CF911F910F910895CF92DF92EF92B1
:100F3000FF920F931F93CF93DF9305E112E02DE013
:100F4000E22E22E0F22EC0E0D0E0D8018D919C91FB
:100F5000F701819391937F01E0910401F0910501E4
:100F6000EC0FFD1F80810E947E1CD8018D939D9304
:100F70008D012296C830D10541F795EFC92E91E039
:100F8000D92ECDEFD1E0E1EFF1E04DE052E085E187
:100F900092E0FF24F39461E070E0DC012D913D913B
:100FA000CD01DA010D911D91AD01201B310B1216FF
:100FB00013069CF02081D601222319F06D937C93B7
:100FC0000AC02D913C9111972530310524F42F5FF3
:100FD0003F4F2D933C93108210C02081211103C0FC
:100FE0007983688309C0288139812530310524F44B
:100FF0002F5F3F4F39832883F08231962296B2E0EB
:10100000CB0ED11C22E08D31920739F6E5E0F2E0FB
:10101000A5E1B2E08D919D91873991051CF4118273
:10102000108208C0808191818A3091051CF401965C
:1010300091838083329662E0AD31B60759F74DE176
:1010400052E0A5EFB1E081EFE82E81E0F82EC5E097
:10105000D2E02DEF31E08FEF9FEF68817981F701CA
:1010600010818230910578F411111BC0F9010081C3
:10107000118105301105ACF00D911C9111970530CF
:10108000110544F50EC011110CC0F9010081118148
:101090000230110534F00D911C91119702301105A9
:1010A000F4F460E0FA01608301964F5F5F4F2E5FBA
:1010B0003F4F2296FFEFEF1AFF0A129683309105F9
:1010C00061F680911E02811111C080911F02882358
:1010D000A9F00CC011E06A30710534F404C011E0CD
:1010E000643071050CF410E0612FDCCF0E94F70A28
:1010F000811104C081E0809324021EC080911D02F2
:10110000811104C0809120028823B1F00E94F70A67
:10111000811112C01092240281E0809323028091F9
:101120001D02882319F08FEF9FEF02C081E090E04D
:101130009093220280932102DF91CF911F910F9112
:10114000FF90EF90DF90CF900895109225020895C0
:101150008CE294E00E9467236AEF70E08CE294E0F6
:101160000E94AB2060911702709118024AE050E093
:101170008CE294E00E947A2164EF70E08CE294E0CB
:101180000E94AB206091190270911A024AE050E06F
:101190008CE294E00E947A2141E060E08CE294E0ED
:1011A0000E946E236FEE70E08CE294E00E94AB2010
:1011B00060911502709116024AE050E08CE294E0D2
:1011C0000E947A2169EE70E08CE294E00E94AB20EC
:1011D00060911B0270911C024AE050E08CE294E0A6
:1011E0000C947A21EAE4F2E081919191A191B1917C
:1011F000C297A105B10534F082E0EA35F807A1F7FE
:1012000081E0089580E0089561E070E0809112012E
:1012100090911301681B790B882777FD8095982F93
:101220000E941E292DEC3CEC4CE451E40E94D22992
:1012300060937E0270937F0280938002909381027C
:101240000895CF92DF92EF92FF92C0907A02D090F1
:101250007B02E0907C02F0907D0220E030E0A9016A
:10126000C701B6010E947F2887FF05C08AE097ED7D
:10127000A3E2BFEB0DC020E030E0A901C701B60139
:101280000E94CE2918166CF48AE097EDA3E2BFE322
:1012900080937E0290937F02A0938002B09381029C
:1012A00008C010927E0210927F021092800210926B
:1012B00081028091720290917302A0917402B091A8
:1012C000750281159041A105B105CCF080917E0297
:1012D00090917F02A0918002B0918102B0588093DA
:1012E0007E0290937F02A0938002B09381021092BD
:1012F0007202109273021092740210927502FF90A3
:10130000EF90DF90CF9008950E94F208882319F0A3
:1013100082E090E02CC080912702882361F18091C7
:101320006E0290916F02A0917002B09171028139AA
:101330009105A105B105FCF084E590E090931D01B5
:1013400080931C0180EF9FEF90931701809316010B
:101350001092270281E0809328021092420210929C
:101360004302109244021092450283E090E0909371
:1013700015018093140108950E94F20881110FC095
:1013800080912702811105C010921501109214015D
:10139000089581E090E090931501809314010895E1
:1013A0008091260281111DC080914E0290914F02C2
:1013B000A0915002B09151020A97A105B1050CF419
:1013C00045C08091520290915302A0915402B09175
:1013D00055020A97A105B105CCF181E08093260260
:1013E000089580915E0290915F02A0916002B09199
:1013F00061020597A105B10564F4809162029091A4
:101400006302A0916402B09165020597A105B10540
:10141000ECF0109227021092260210921501109201
:1014200014011092280281E090E0909313018093C0
:10143000120180E290E0909317018093160184E5F9
:1014400090E090931D0180931C01089580912802E3
:10145000882309F461C08091420290914302A091D7
:101460004402B0914502811520E19207A105B10522
:10147000D4F0109242021092430210924402109251
:1014800045028091120190911301892B39F482E079
:1014900090E0909313018093120110C010921301F9
:1014A000109212010BC00196A11DB11D8093420242
:1014B00090934302A0934402B09345028091460268
:1014C00090914702A0914802B0914902811524E011
:1014D0009207A105B105A4F0809116019091170122
:1014E000919581959109909317018093160110921F
:1014F0004602109247021092480210924902089543
:101500000196A11DB11D8093460290934702A093BE
:101510004802B09349020895809176029091770233
:10152000A0917802B091790281159041A105B10591
:10153000CCF08091120190911301892B39F482E053
:1015400090E0909313018093120104C01092130154
:101550001092120110927602109277021092780285
:1015600010927902089581E0809387028093860229
:1015700008951092870240E050E060E070E08AE257
:1015800094E00E94FF2540E050E063E070E08AE2D2
:1015900094E00E94FF2510928602089581E08093D6
:1015A00087020C94B90A8091280281111FC0809192
:1015B0001201909113018130910579F01CF4892B6F
:1015C00061F011C08230910519F0039731F00BC022
:1015D000109213011092120106C082E090E09093E5
:1015E00013018093120181E080932702089581E026
:1015F00020911401309115012330310509F080E06C
:101600000895EF92FF920F931F9360930E017093D2
:101610000F018093100190931101209306013093E4
:1016200007014093080150930901E0920A01F092EA
:101630000B0100930C0110930D011F910F91FF906E
:10164000EF900895EF92FF920F931F93CF93DF9344
:1016500000D000D0CDB7DEB77C01DC0115967C93BD
:101660006E9314978B01085F1F4F13961C930E9374
:101670001297000F111F000F111FC80149835A83D1
:101680006B837C830E94CE22F70180839183780153
:10169000F0E2EF1AF10849815A81E40EF51EFC01CF
:1016A0004E155F0571F0DA010D911D912D913D915F
:1016B000AD01309721F00083118322833383349668
:1016C000EFCF0F900F900F900F90DF91CF911F9160
:1016D0000F91FF90EF900895EF92FF920F931F9359
:1016E000CF93DF9300D000D0CDB7DEB77C01DC0113
:1016F00015967C936E9314978B01085F1F4F13967A
:101700001C930E931297000F111F000F111FC80199
:1017100049835A836B837C830E94CE22F7018083A6
:1017200091837801F0E2EF1AF10849815A81E40EC1
:10173000F51EFC014E155F0571F0DA010D911D914A
:101740002D913D91AD01309721F0008311832283CB
:1017500033833496EFCF0F900F900F900F90DF915F
:10176000CF911F910F91FF90EF900895FC0110828F
:1017700011820895FC01808191810C94D022AF9256
:10178000BF92CF92DF92EF92FF920F931F93CF936E
:10179000DF93EC018B016817790709F492C0DB0134
:1017A00014962D913C9115978A819B8182179307FE
:1017B00048F5C880D9803B832A83C901880F991FC7
:1017C000880F991F0E94CE2288839983EC80FD8028
:1017D000FC01D60120E030E02E153F0581F0309766
:1017E00049F04D915D916D917C91139740835183A8
:1017F000628373832F5F3F4F34961496EDCFC601FB
:101800000E94D0228C819D81F801448155815A012A
:101810008417950708F45C0120E030E060E070E098
:101820006A157B05B1F0D801ED91FC91E20FF31F31
:10183000C080D180E280F380E881F981E20FF31F5C
:10184000C082D182E282F3826F5F7F4F2C5F3F4F75
:10185000E7CF8417950758F0F801848195812C8192
:101860003D818217930768F59D838C832AC09C0174
:10187000220F331F220F331FD80114964D915C9114
:1018800015978417950740F7F801A081B181A20F41
:10189000B31FE881F981E20FF31F309741F04D91BA
:1018A0005D916D917C9140835183628373834C8100
:1018B0005D814F5F5F4F5D834C8301962C5F3F4F8F
:1018C000DBCFCE01DF91CF911F910F91FF90EF9071
:1018D000DF90CF90BF90AF900895FC0180819181FF
:1018E0000C94D022AF92BF92CF92DF92EF92FF92F0
:1018F0000F931F93CF93DF93EC018B016817790748
:1019000009F492C0DB0114962D913C9115978A81C0
:101910009B818217930748F5C880D9803B832A832F
:10192000C901880F991F880F991F0E94CE228883B2
:101930009983EC80FD80FC01D60120E030E02E157B
:101940003F0581F0309749F04D915D916D917C910B
:10195000139740835183628373832F5F3F4F349685
:101960001496EDCFC6010E94D0228C819D81F80192
:10197000448155815A018417950708F45C0120E0E1
:1019800030E060E070E06A157B05B1F0D801ED91C0
:10199000FC91E20FF31FC080D180E280F380E881E8
:1019A000F981E20FF31FC082D182E282F3826F5F7E
:1019B0007F4F2C5F3F4FE7CF8417950758F0F80112
:1019C000848195812C813D818217930768F59D83E1
:1019D0008C832AC09C01220F331F220F331FD80192
:1019E00014964D915C9115978417950740F7F8016F
:1019F000A081B181A20FB31FE881F981E20FF31F2B
:101A0000309741F04D915D916D917C914083518370
:101A1000628373834C815D814F5F5F4F5D834C8335
:101A200001962C5F3F4FDBCFCE01DF91CF911F910D
:101A30000F91FF90EF90DF90CF90BF90AF900895FF
:101A40000F931F93CF93DF93CDB7DEB728970FB6D1
:101A5000F894DEBF0FBECDBF10922802109227026D
:101A60001092260210928602109215011092140113
:101A700081E090E09093130180931201109285020F
:101A80001092840284E590E090931D0180931C01E4
:101A900080EC9FEF90931B0180931A0180E290E00D
:101AA0009093190180931801909317018093160168
:101AB000109283021092820210927E0210927F0294
:101AC000109280021092810210927A0210927B0290
:101AD00010927C0210927D028AE292E00E94B60B84
:101AE00089E292E00E94B60B1092390210923A02FB
:101AF0004FE451E062E070E09E01285F3F4FCE016D
:101B000001960E946C0BBE016F5F7F4F8BE292E0EB
:101B10000E94BF0BCE0101960E94BA0B47E451E030
:101B200062E070E09E01285F3F4FCE0101960E9467
:101B3000220BBE016F5F7F4F82E392E00E94720C26
:101B4000CE0101960E946D0CEAE5F2E02AE432E053
:101B500080911E0190911F016AE372E0119211922F
:101B600011921192D9011D921D921D921D929D01FB
:101B7000DC014D915D91CD01DB014D935D93BD0184
:101B8000B2E0EA36FB0751F710926A0210926B023C
:101B900010926C0210926D0210926E0210926F02FF
:101BA00010927002109271021092720210927302DF
:101BB00010927402109275021092760210927702BF
:101BC000109278021092790210920E0110920F0179
:101BD000109210011092110110920601109207014B
:101BE000109208011092090110920A0110920B0143
:101BF00010920C0110920D010AE312E0F8018081AD
:101C00000E5F1F4F60E00E941B1DF2E002341F07B1
:101C1000A9F728960FB6F894DEBF0FBECDBFDF91AF
:101C2000CF911F910F910895CF93DF93EC01A8817D
:101C3000B981EA81FB819D01C3E036952795CA955C
:101C4000E1F7A770BB27E20FF31F662371F0208135
:101C5000332727FD309541E050E002C0440F551F67
:101C6000AA95E2F7242B352B0FC021E030E002C00B
:101C7000220F331FAA95E2F7209530954081552712
:101C800047FD5095242335232083DF91CF9108957C
:101C9000DC012D913C9111971296ED91FC911397D7
:101CA000C90143E0969587954A95E1F7E80FF91F3A
:101CB0008081992787FD90952770332702C09595DD
:101CC00087952A95E2F7817008952F923F924F925F
:101CD0005F926F927F928F929F92AF92BF92CF92BC
:101CE000DF92EF92FF920F931F93CF93DF93CDB7C5
:101CF000DEB768970FB6F894DEBF0FBECDBF9AE38C
:101D0000E92E92E0F92E00E010E0CC24C394D12C0F
:101D1000D7018C91B2E0EB0EF11C0E948A1D20913C
:101D20003902892B69F0C601002E02C0880F991F65
:101D30000A94E2F7332727FD3095822B932B0EC0B0
:101D4000C601002E02C0880F991F0A94E2F7809501
:101D50009095332727FD3095822393238093390272
:101D60000F5F1F4F0430110599F680901401909079
:101D700015012FE331E0EAE6F2E0D9018D919D9162
:101D80009D018816990629F0108211821282138211
:101D900011C080819181A281B381811540E49407B3
:101DA000A105B1053CF40196A11DB11D808391836D
:101DB000A283B383349651E027343507F1F61AE550
:101DC000C12E12E0D12E0AE4E02E02E0F02EA12C6A
:101DD000B12C89E3682E82E0782E8E010F5F1F4FB1
:101DE0007C826B82BA82A982C8010E94480E882335
:101DF000B1F0D7011D921D921D921C921397F6010E
:101E000080819181A281B3818115F0E49F07A105B2
:101E1000B105F4F40196A11DB11DF60115C0D6015E
:101E20001D921D921D921C921397F7018081918142
:101E3000A281B3818115F0E49F07A105B10544F4A7
:101E40000196A11DB11DF70180839183A283B38305
:101E5000FFEFAF1ABF0A24E0C20ED11C34E0E30E3C
:101E6000F11C44E0A416B10409F0BACFF401EE0F5E
:101E7000FF1FE959FE4F0190F081E02D09958091F7
:101E8000140190911501880F991FFC01E958FE4F2C
:101E90000190F081E02D20813181309383022093E5
:101EA0008202FC01E159FE4F0190F081E02D09957D
:101EB00060911C0170911D0177FF03C071956195C0
:101EC0007109882777FD8095982F0E941E292091FF
:101ED0007E0230917F0240918002509181020E94E7
:101EE000D22960937E0270937F0280938002909348
:101EF0008102C0907A02D0907B02E0907C02F09048
:101F00007D02A70196010E947F28882309F45AC008
:101F1000C982DA82EB82FC82E0913202F0913302D4
:101F200080819181A281B3818D839E83AF83B887A5
:101F3000A80162E070E09E01205F3F4FCE0109964C
:101F40000E94220BBE01675F7F4F82E392E00E94F6
:101F5000720CCE0109960E946D0C19821A821B82A6
:101F60001C82E0912B02F0912C0280819181A28150
:101F7000B3818D839E83AF83B887A80162E070E050
:101F80009E01205F3F4FCE0109960E946C0BBE015F
:101F9000675F7F4F8BE292E00E94BF0BCE010996F4
:101FA0000E94BA0B80917E0290917F02A0918002E4
:101FB000B091810280937A0290937B02A0937C027D
:101FC000B0937D0200912B0210912C0220912F02E0
:101FD00030913002220F331F220F331F200F311F89
:101FE000F801E217F30761F080819181A281B3814A
:101FF0000196A11DB11D81939193A193B193F1CF4E
:1020000080907E0290907F02A0908002B09081022A
:102010002090320230903302D1014D905D906D904E
:102020007C90D8012D913D914D915C91298B3A8BFB
:102030004B8B5C8BCA01B9010E941C296D8B7E8B76
:102040008F8B988FA3019201C501B4010E941A28B9
:102050002D893E894F89588D0E9483286B017C0110
:1020600024EA30E74DE151E4C501B4010E94D229D0
:102070004B015C0121EE3AE74CE351E4C701B601A4
:102080000E94D2299B01AC01C501B4010E941B280A
:102090004B015C01F1012481358146815781C301E7
:1020A000B2010E941A282B013C01D80114966D91AF
:1020B0007D918D919C91179729893A894B895C89EB
:1020C000621B730B840B950B0E941C299B01AC01B6
:1020D000C301B2010E9483289B01AC01C701B60174
:1020E0000E941A282D893E894F89588D0E94832885
:1020F00020E633E14BEC50E40E94D2299B01AC0175
:10210000C501B4010E941B280E94EB2871956195BE
:102110007109709385026093840220911C013091B3
:102120001D0137FF03C0319521953109C901880F81
:10213000991F820F931F959587958617970734F0FF
:102140009195819591096817790724F490938502F8
:1021500080938402809186028823D9F04091840282
:10216000509185028091820290918302481B590B05
:1021700060E070E08AE294E00E94FF2540918402D2
:10218000509185028091820290918302480F591FDD
:102190000AC040E050E060E070E08AE294E00E9413
:1021A000FF2540E050E063E070E08AE294E00E94A6
:1021B000FF2568960FB6F894DEBF0FBECDBFDF9146
:1021C000CF911F910F91FF90EF90DF90CF90BF9034
:1021D000AF909F908F907F906F905F904F903F90C7
:1021E0002F9008952F923F924F925F926F927F921D
:1021F0008F929F92AF92BF92CF92DF92EF92FF9217
:102200000F931F93CF93DF93CDB7DEB761970FB6D0
:10221000F894DEBF0FBECDBF0E94F208882319F0EC
:1022200082E090E006C080912702882339F081E0A7
:1022300090E09093150180931401B5C180916A02DA
:1022400090916B02A0916C02B0916D028436910561
:10225000A105B1050CF4A7C1C0904E02D0904F0269
:10226000E0905002F090510222E3C216D104E10442
:10227000F10464F08091520290915302A0915402B3
:10228000B0915502C297A105B105DCF421E080911F
:102290005A0290915B02A0915C02B0915D020F978F
:1022A000A105B1050CF420E08091660290916702CF
:1022B000A0916802B09169020F97A105B10524F4BD
:1022C00001C020E010E001C011E0222359F01A8281
:1022D00019828AE292E09C838B8361E0CE010196B1
:1022E0000E94140E112369F08AE292E09C838B8392
:1022F00081E090E09A83898361E0CE0101960E949B
:10230000140E00E010E079E3872E72E0972EE9E2E8
:10231000AE2EE2E0BE2E9C828B821A830983CE0110
:1023200001960E94480E81110DC060912A02772704
:1023300067FD7095002E02C0759567950A94E2F7C7
:10234000617001C060E0B886AF821E830D83CE014C
:1023500005960E94140E0F5F1F4F02301105D9F62B
:1023600050912902852F992787FD90959C013595DD
:102370002795822B932B80FF16C180914A02909162
:102380004B02A0914C02B0914D028B349105A105F6
:10239000B1050CF408C18091560290915702A091AA
:1023A0005802B09159028B349105A105B1050CF486
:1023B000FAC082E3C816D104E104F1046CF041E0F4
:1023C0008091520290915302A0915402B091550213
:1023D000C297A105B1050CF440E0C90181709927AD
:1023E0009B878A8791E0942799878170898B5170A8
:1023F0005E8780900E0190900F01A0901001B09028
:102400001101C0900601D0900701E0900801F09002
:10241000090140900A0150900B0160900C017090EE
:102420000D01252F332727FD3095388B2F87222448
:102430002394312CA7019601C501B4010E94CE2935
:10244000181614F0212C312C01E010E0A3019201A8
:10245000C501B4010E94CE29181614F000E010E066
:10246000020D131D2F853889209FC001219F900DDB
:10247000309F900D11249D878C8722242394312C2A
:10248000A5019401C701B6010E94CE29181614F0C7
:10249000212C312C01E010E0A3019201C701B6010B
:1024A0000E94CE29181614F000E010E0020D131D52
:1024B0008A859B85809F1001819F300C909F300CF6
:1024C00011243985232F30E0388B2F8781E090E06D
:1024D0009B878A87A5019401C301B2010E94CE297E
:1024E000181614F01B861A8601E010E0A701960169
:1024F000C301B2010E94CE29181614F000E010E0CA
:102500002A853B85020F131F2F853889209FC00124
:10251000219F900D309F900D11243985332341F078
:102520002C853D85821793071CF08215930514F5C1
:102530003E85332341F02C853D85221533051CF063
:1025400028173907D4F43989332359F02C853D8570
:102550002216330634F0281639061CF082E090E08B
:102560000EC03985311106C08E85811106C099894A
:102570009111F4CF81E090E002C080E090E0909370
:10258000130180931201019731F083E090E0909362
:102590001501809314018AE292E00E94B60B89E251
:1025A00092E00E94B60B61960FB6F894DEBF0FBEA4
:1025B000CDBFDF91CF911F910F91FF90EF90DF90F2
:1025C000CF90BF90AF909F908F907F906F905F90D3
:1025D0004F903F902F900895CF92DF92EF92FF920D
:1025E0000F931F93CF93DF9300D000D0CDB7DEB70A
:1025F0001A82198209E312E01C830B83CE01019633
:102600000E94480EE82E21E030E03A832983CE0173
:1026100001960E94480ED82E22E030E03A832983AA
:10262000CE0101960E94480EF82E23E030E03A8356
:102630002983CE0101960E94480EDD2081F0FF2003
:1026400049F010927E0210927F0210928002109246
:10265000810248C08AE097EDA3EABCE33BC0FF20BB
:1026600029F08AE097EDA3EABCEB34C0EE2039F004
:1026700081110CC08AE097EDA3E2BDE32BC0882353
:1026800029F08AE097EDA3E2BDEB24C0C0907A0266
:10269000D0907B02E0907C02F0907D0220E030E060
:1026A000A901C701B6010E947F2887FF05C08AE003
:1026B00097EDA3EABDEB0EC020E030E0A901C70111
:1026C000B6010E94CE2918160CF0BBCF8AE097ED18
:1026D000A3EABDE380937E0290937F02A0938002E1
:1026E000B09381020F900F900F900F90DF91CF91D8
:1026F0001F910F91FF90EF90DF90CF9008950C9471
:10270000EC12EF92FF920F931F93CF93DF9300D0C1
:1027100000D0CDB7DEB78CE294E00E9467238091B1
:102720001401909115018130910589F02CF4892BC9
:1027300089F46BE171E010C08230910529F00397B4
:1027400049F46EE171E008C061E271E005C068E142
:1027500071E002C065E171E08CE294E00E94AB2080
:1027600080912802882369F063E171E08CE294E0B3
:102770000E94AB2000E010E0F9E3EF2EF2E0FF2E24
:1027800032C080911401909115010397D9F4809182
:102790001201909113018130910571F02CF4892B75
:1027A00049F761E171E0E2CF8230910541F0039792
:1027B00009F76BE071E0DACF6FE071E0D7CF6DE041
:1027C00071E0D4CF809184029091850297FF03C07D
:1027D00069E071E0CBCF892B19F067E071E0C6CFDB
:1027E00065E071E0C3CF63E071E08CE294E00E94A9
:1027F000AB20FC82EB821A830983CE0101960E94F2
:10280000480E682F70E04AE050E08CE294E00E94AD
:102810007A210F5F1F4F0430110529F741E060E076
:102820008CE294E00E946E2322E030E044EA50E71C
:102830006DE171E48CE294E00E946D2261E071E050
:102840008CE294E00E94AB2022E030E041EE5AE7B7
:102850006CE371E48CE294E00E946D226FEF70E013
:102860008CE294E00E94AB2060918402709185021A
:102870004AE050E08CE294E00E947A210F900F90A1
:102880000F900F90DF91CF911F910F91FF90EF90DC
:102890000895CF93DF931F92CDB7DEB780911801D3
:1028A00090911901909383028093820210923902D1
:1028B00010923A024FE551E062E070E09E012F5F16
:1028C0003F4F82E392E00E94220B47E551E062E035
:1028D00070E09E012F5F3F4F8BE292E00E946C0BF5
:1028E0008AE292E00E94B60B89E292E00E94B60B67
:1028F0000F90DF91CF9108958BE292E00E94BA0B86
:1029000082E392E00C946D0CE0912001F0912101A2
:1029100080810C947E1CE0912001F0912101828144
:102920000C947E1C0F931F93CF93DF93CCE9D2E0DE
:102930000EE812E00E948414899399930E948B14EC
:10294000F801819391938F01F2E0C63ADF0791F786
:10295000DF91CF911F910F910895AF92BF92CF92C7
:10296000DF92EF92FF920F931F93CF93DF930E941A
:1029700084148C01C0918802D0918902CC0FDD1F94
:10298000C456DD4F68817981882777FD8095982F1F
:102990000E941E299B01AC016091980270919902DE
:1029A00080919A0290919B020E941A286B017C01EF
:1029B00019830883B801882777FD8095982F0E9496
:1029C0001E299B01AC01C701B6010E941B28609320
:1029D00098027093990280939A0290939B020E94AE
:1029E0008B145C01C0918802D09189028E01000F86
:1029F000111F02571D4FF80160817181882777FDF3
:102A00008095982F0E941E299B01AC0160918A023B
:102A100070918B0280918C0290918D020E941A28F5
:102A20006B017C01F801B182A082B501882777FD96
:102A30008095982F0E941E299B01AC01C701B60109
:102A40000E941B2860938A0270938B0280938C02F1
:102A500090938D022196C530D1052CF4D093890234
:102A6000C093880204C01092890210928802DF91FC
:102A7000CF911F910F91FF90EF90DF90CF90BF907B
:102A8000AF9008958F929F92AF92BF92CF92DF92B4
:102A9000EF92FF9220E030E040EA50E4609198022B
:102AA0007091990280919A0290919B020E948328D2
:102AB0004B015C0120E030E040EA50E460918A0282
:102AC00070918B0280918C0290918D020E948328DC
:102AD0006B017C0120E030E048E452E4C501B40120
:102AE0000E94CE2920E030E048E452E4181694F425
:102AF000C701B6010E94CE2918161CF080E090E0B4
:102B000014C0A7019601C501B4010E94CE29181670
:102B10003CF4F4CFC701B6010E94CE2918161CF46C
:102B200082E090E002C081E090E0FF90EF90DF90C3
:102B3000CF90BF90AF909F908F900895CF92DF92EB
:102B4000EF92FF92CF93C0908A02D0908B02E090D8
:102B50008C02F0908D0220E030E040EA50E4609179
:102B600098027091990280919A0290919B020E9422
:102B7000832820E030E842E254E40E94CE2918166F
:102B8000A4F020E030E040EA50E4C701B6010E9422
:102B90008328C1E020E030E842E254E40E94CE29DC
:102BA00018160CF0C0E08C2F01C081E0CF91FF908F
:102BB000EF90DF90CF9008958CE294E00E9467231D
:102BC00065E371E08CE294E00E94AB200E948414E3
:102BD0004AE050E0BC018CE294E00E947A216FE26E
:102BE00071E08CE294E00E94AB2020E030E040EA0B
:102BF00050E4609198027091990280919A029091AC
:102C00009B020E948328AB01BC0122E030E08CE2F1
:102C100094E00E946D2241E060E08CE294E00E942A
:102C20006E236AE271E08CE294E00E94AB200E9485
:102C30008B144AE050E0BC018CE294E00E947A21BF
:102C400064E271E08CE294E00E94AB2020E030E08E
:102C500040EA50E460918A0270918B0280918C026C
:102C600090918D020E948328AB01BC0122E030E0EC
:102C70008CE294E00C946D22CF9360E070E080E0F1
:102C800090E00E944D2660E070E081E090E00E94BC
:102C90004D2620E042E060E18CE294E00E9488232F
:102CA00063E270E089E294E00E940C256FE170E03D
:102CB00088E294E00E940C2562E270E087E294E0F2
:102CC0000E940C2588E294E00E94572587E294E058
:102CD0000E94572540E855E260E070E086ED92E002
:102CE0000E944C1F80E00E947E1C0E946F228CE29A
:102CF00094E00E9467236AED73E08CE294E00E9406
:102D0000AB2041E060E08CE294E00E946E236EEC28
:102D100073E08CE294E00E94AB20C0E062E08C2F74
:102D20000E941B1DCF5FC031C9F7CF910C94910257
:102D30000E94650E0E9400070E9495070E944F079F
:102D400081110C94D30A0895EF92FF920F931F9371
:102D50008091E801882369F08DE00E948A1D892B0B
:102D600041F41092E8011092A9021092A8020E9468
:102D7000DB040E949E15882359F00E94CE0A0E940F
:102D8000650E84E090E09093A9028093A8023CC075
:102D90000E94650E0E9400070E94AD140E94421519
:102DA000009781F00297E1F41DECE12E1CECF12E6E
:102DB0000CEC1DE320E030E048EC52E460E070E011
:102DC000CB0116C01DECE12E1CECF12E0CEC1DE32A
:102DD00020E030E0A90160E070E088EC92E408C0F7
:102DE000E12CF12C08E412E4A8019701C801B70115
:102DF0000E94010B0E944F07882331F01F910F9111
:102E0000FF90EF900C94D30A1F910F91FF90EF90D9
:102E100008958091A8029091A902029769F48CE22A
:102E200094E00E94672363EB73E08CE294E00E94DD
:102E3000AB2061E081E00CC08CE294E00E9467234B
:102E400062EA73E08CE294E00E94AB2061E080E0F3
:102E50000E948D058091E801882359F083E090E07D
:102E60009093A9028093A8028CE294E00E946723C9
:102E700004C01092A9021092A8020E9452070C945A
:102E8000B30A0E944215009719F460E080E004C084
:102E9000029721F460E081E00E948D051092A90262
:102EA0001092A8020895EF92FF920F931F93CF9371
:102EB000DF938CE294E00E9467236EE873E08CE27B
:102EC00094E00E94AB2041E060E08CE294E00E943C
:102ED0006E236CE773E08CE294E00E94AB2064EF19
:102EE00071E080E090E00E94241C0E943726892B2C
:102EF00049F44CE95FEF60E070E08AE294E00E9400
:102F0000FF25F3CF40E050E060E070E08AE294E01B
:102F10000E94FF250E943726892BE1F764EF71E0BC
:102F200080E090E00E94241C8CE294E00E946723E1
:102F300069E673E08CE294E00E94AB2041E060E03F
:102F40008CE294E00E946E2367E573E08CE294E0EB
:102F50000E94AB200E943726892B49F444E650E0BA
:102F600063E070E08AE294E00E94FF25F3CF40E046
:102F700050E063E070E08AE294E00E94FF250E9446
:102F80003726892BE1F764EF71E080E090E00E9442
:102F9000241C8CE294E00E94672364E473E08CE2DA
:102FA00094E00E94AB2041E060E08CE294E00E945B
:102FB0006E2362E373E08CE294E00E94AB200E94F7
:102FC0003726892BE1F30E943726892BE1F764EF3E
:102FD00071E080E090E00E94241C8CE294E00E946A
:102FE000672362E273E08CE294E00E94AB2041E050
:102FF00060E08CE294E00E946E2360E173E08CE27A
:1030000094E00E94AB20C0E0D0E002E310E00E9418
:103010003726892BD1F4CE01B8010E94492A892B89
:1030200081F48CE294E00E9467230E94BA02AB0113
:10303000BC0122E030E08CE294E00E946D22C0E00E
:10304000D0E021960E940B03E2CF40E050E061E027
:1030500070E08AE294E00E94FF250E943726892BC7
:10306000E1F764EF71E080E090E00E94241C8CE2C4
:1030700094E00E9467236BEF72E08CE294E00E9480
:10308000AB2041E060E08CE294E00E946E2369EEA8
:1030900072E08CE294E00E94AB2000912901109133
:1030A0002A0178018FEFE81AF80A0E943726892B47
:1030B00009F045C08CE294E00E9467236CED72E059
:1030C0008CE294E00E94AB2041E060E08CE294E06E
:1030D0000E946E236AEC72E08CE294E00E94AB20C6
:1030E00062E370E080E090E00E94241C0E9442268F
:1030F000892BD9F264EF71E080E090E00E94241CFB
:1031000044E75FEF62E070E08AE294E00E94FF250E
:103110001092E801C80117FDC701BC0175956795BC
:10312000882777FD8095982F0E94241C40E050E06E
:1031300062E070E08AE294E00E94FF25B6CF0E9430
:103140003726892BE1F764EF71E080E090E00E9480
:10315000241C8CE294E00E94672368EB72E08CE20E
:1031600094E00E94AB2041E060E08CE294E00E9499
:103170006E2366EA72E08CE294E00E94AB200E942B
:103180003726892BE1F364EF71E080E090E00E9444
:10319000241C68EC70E080E00E94470540E050E0AD
:1031A00061E070E08AE294E00E94FF2564EF71E044
:1031B00080E090E00E94241C8CE294E00E9467234F
:1031C00063E972E08CE294E00E94AB2041E060E0B1
:1031D0008CE294E00E946E2361E872E08CE294E05D
:1031E0000E94AB200E943726892BE1F364EF71E047
:1031F00080E090E00E94241C68EC70E081E00E9476
:10320000470540E050E061E070E08AE294E00E940F
:10321000FF2564EF71E080E090E00E94241C8CE2C6
:1032200094E00E9467236EE672E08CE294E00E94D4
:10323000AB2041E060E08CE294E00E946E236CE5FC
:1032400072E08CE294E00E94AB2002E310E00E9466
:103250003726892B59F50E940007CE01B8010E943C
:10326000492A892B09F58CE294E00E9467238CE0BF
:103270000E948A1D892B19F46FE472E00FC08DE063
:103280000E948A1D892B19F463E472E007C08EE066
:103290000E948A1D892B31F465E372E08CE294E090
:1032A0000E94AB20C0E0D0E02196D1CF0E9437260B
:1032B000892BE1F764EF71E080E090E00E94241C2C
:1032C0008CE294E00E94672363E272E08CE294E077
:1032D0000E94AB2041E060E08CE294E00E946E230B
:1032E00061E172E08CE294E00E94AB200E943726FC
:1032F000892BE1F364EF71E080E090E00E94241CF0
:1033000068EC70E080E00E94470540E050E061E03A
:1033100070E08AE294E00E94FF2564EF71E080E0B3
:1033200090E00E94241C8CE294E00E9467236EEFE0
:1033300071E08CE294E00E94AB2041E060E08CE21E
:1033400094E00E946E236CEE71E08CE294E00E94A7
:10335000AB200E943726892BE1F364EF71E080E017
:1033600090E00E94241C68EC70E081E00E94470518
:1033700040E050E061E070E08AE294E00E94FF25C6
:1033800064EF71E080E090E00E94241C8CE294E005
:103390000E94672366ED71E08CE294E00E94AB200E
:1033A00041E060E08CE294E00E946E2364EC71E006
:1033B0008CE294E00E94AB200E943726892BE1F337
:1033C00064EF71E080E090E00E94241C02E310E0D2
:1033D0000E943726892BE9F40E940007CE01B8012C
:1033E0000E94492A892B99F48CE294E00E94672379
:1033F0000E944F07882319F069EB71E002C06CEA64
:1034000071E08CE294E00E94AB20C0E0D0E0219615
:10341000DFCF0E943726892BE1F764EF71E080E06F
:1034200090E00E94241C8CE294E00E94672363EAEF
:1034300071E08CE294E00E94AB2041E060E08CE21D
:1034400094E00E946E2361E971E08CE294E00E94B6
:10345000AB200E943726892BE1F364EF71E080E016
:1034600090E00E94241C0E94200D0E94CE0A02E3DC
:1034700010E00E943726892B91F40E94650ECE0140
:10348000B8010E94492A892B41F48CE294E00E9401
:1034900067230E948113C0E0D0E02196EACF0E940A
:1034A000CE0A64EF71E080E090E00E94241C8CE280
:1034B00094E00E94672362E871E08CE294E00E944D
:1034C000AB2041E060E08CE294E00E946E2360E774
:1034D00071E08CE294E00E94AB200E943726892B99
:1034E000E1F364EF71E080E090E00E94241C0E9410
:1034F000520702E310E00E943726892B91F40E94C4
:103500009507CE01B8010E94492A892B41F48CE22B
:1035100094E00E9467230E94A808C0E0D0E02196B2
:10352000EACF0E94A50864EF71E080E090E00E947D
:10353000241C8CE294E00E94672360E671E08CE238
:1035400094E00E94AB2041E060E08CE294E00E94B5
:103550006E236EE471E08CE294E00E94AB200E9446
:103560003726892BE1F364EF71E080E090E00E9460
:10357000241C0E94921402E310E00E943726892B3B
:1035800091F40E94AD14CE01B8010E94492A892B02
:1035900041F48CE294E00E9467230E94DC15C0E0B5
:1035A000D0E02196EACF0E94A50864EF71E080E0A8
:1035B00090E00E94241C8CE294E00E9467238CE23D
:1035C00094E00E9467236AE371E08CE294E00E9439
:1035D000AB200E943726892B39F46AE070E080E046
:1035E00090E00E94241CF5CF0E943726892BE1F73A
:1035F00064EF71E080E090E00E94241C81E0809301
:10360000AA02DF91CF911F910F91FF90EF90089543
:103610008091AA02811105C00E943726892B09F0EA
:1036200061C08091AA02811105C00E944226892BA7
:1036300009F068C00E943726892B21F08091AA02E8
:1036400081116FC00E944226892B21F08091AA022D
:10365000811170C08091AA028823D9F08091A602BE
:103660009091A70268EC70E00E94492A892B89F4A6
:103670008091A8029091A902009719F40E94A808CD
:1036800004C0039711F40E94DC151092A702109257
:10369000A6028091A6029091A70201969093A7029C
:1036A0008093A6028091AA02882309F452C00E9446
:1036B0000B038091A8029091A902009711F40C9439
:1036C00098169C01215031092230310510F40C94D8
:1036D00009178330910511F40C94A4160497C9F5C9
:1036E0000C94411781E08093AA020E94200D0E9451
:1036F00052070E94B30A0E9492148CE294E00E9446
:1037000067238FCF0E9453170E94200D0E945207FB
:103710000E94B30A0E9492148CE294E00E946723F4
:1037200089CF0E94B30A0E9452078CE294E00E9463
:10373000672388CF0E94CE0A0E94A5088CE294E0FD
:103740000E94672365EC73E08CE294E00E94AB205A
:1037500081CF08951F920F920FB60F9211242F93CD
:103760003F938F939F93AF93BF938091AC029091BF
:10377000AD02A091AE02B091AF023091AB0223E056
:10378000230F2D3720F40196A11DB11D05C026E899
:10379000230F0296A11DB11D2093AB028093AC02B2
:1037A0009093AD02A093AE02B093AF028091B002AD
:1037B0009091B102A091B202B091B3020196A11D05
:1037C000B11D8093B0029093B102A093B202B09366
:1037D000B302BF91AF919F918F913F912F910F9025
:1037E0000FBE0F901F9018952FB7F8946091AC0200
:1037F0007091AD028091AE029091AF022FBF0895FB
:103800003FB7F8948091B0029091B102A091B202BA
:10381000B091B30222B706B600FE05C02F3F19F0E3
:103820000196A11DB11D3FBF6627782F892F9A2FC2
:10383000620F711D811D911D42E0660F771F881F69
:10384000991F4A95D1F70895CF92DF92EF92FF9298
:10385000CF93DF936B017C010E94001CEB01C1142C
:10386000D104E104F10479F00E94001C6C1B7D0B73
:10387000683E7340A0F381E0C81AD108E108F1085E
:10388000C851DC4FECCFDF91CF91FF90EF90DF90EC
:10389000CF900895019739F0880F991F880F991FCD
:1038A00002970197F1F70895789483B7846083BFF6
:1038B00087B7816087BF1EBC8EB582608EBD8EB516
:1038C00081608EBD8FB581608FBD85B5846085BDFB
:1038D00085B5806485BDEAE8F0E080818260808300
:1038E000808181608083EBE8F0E08081816080836B
:1038F000329A319A309A379A1AB808958B3208F072
:103900008B5287702091220190E4299F900111240D
:10391000822B87B9369A3699FECF84B125B190E0D3
:10392000922B08951F93CF93DF93182FEB0161E043
:103930000E941B1D209711F460E004C0CF3FD10509
:1039400039F461E0812FDF91CF911F910C94541DC8
:10395000E12FF0E0E751FC4F449150E0FA0131973C
:10396000EA30F105C0F5EA5BFF4F0C949E2A83B75D
:10397000806183BFC1BF34C08FB580688FBDDBBDA0
:10398000CABD2EC08FB580628FBDD9BDC8BD28C04D
:1039900085B5806285BDC3BD23C080918B008068E2
:1039A00080938B00D0938700C093860019C08091CC
:1039B0008B00806280938B00D0938500C09384003D
:1039C0000FC080918B00886080938B00D093830020
:1039D000C093820005C0C038D1050CF0B2CFACCF87
:1039E000DF91CF911F91089590E0FC013197EA306B
:1039F000F10500F5E05BFF4F0C949E2A8FB58F77A1
:103A000002C08FB58F7D8FBD089585B58F7D85BD33
:103A1000089583B78F7D83BF089580918B008F7742
:103A200007C080918B008F7D03C080918B00877FC2
:103A300080938B000895CF93DF9390E0FC01E25ECA
:103A4000FB4F2491FC01ED5AFB4F8491882349F1EF
:103A500090E0880F991FFC01E855FB4FA591B491A8
:103A600088569B4FFC01C591D4919FB7611108C046
:103A7000F8948C91209582238C93888182230AC0AC
:103A8000623051F4F8948C91322F309583238C93CB
:103A90008881822B888304C0F8948C91822B8C932C
:103AA0009FBFDF91CF9108950F931F93CF93DF9323
:103AB0001F92CDB7DEB7282F30E0F901E751FC4F58
:103AC0008491F901E25EFB4F1491F901ED5AFB4F2D
:103AD00004910023C9F0882321F069830E94F41C1B
:103AE0006981E02FF0E0EE0FFF1FE856FB4FA59134
:103AF000B4919FB7F8948C91611103C01095812304
:103B000001C0812B8C939FBF0F90DF91CF911F91AC
:103B10000F910895CF93DF93282F30E0F901E751FB
:103B2000FC4F8491F901E25EFB4FD491F901ED5A0B
:103B3000FB4FC491CC2391F081110E94F41CEC2F17
:103B4000F0E0EE0FFF1FE857FB4FA591B4912C91C9
:103B50002D2381E090E021F480E002C080E090E03D
:103B6000DF91CF910895FC0124853585F901E05C52
:103B7000FF4F80819181329620813181805C9F4FFF
:103B8000821B930B60E470E00E94492A0895FC01B7
:103B900084859585FC01E05CFF4F40815181329620
:103BA000208131814217530741F00190F081E02DCF
:103BB000E80FF91F808190E008958FEF9FEF08953F
:103BC000FC0184859585FC01E05CFF4F40815181BB
:103BD0003296208131814217530779F0A081B1815B
:103BE000A80FB91F8C91208131812F5F3F4F2F7318
:103BF00033273183208390E008958FEF9FEF08955E
:103C0000FC0181A1882329F0A489B5898C9186FFC4
:103C1000FBCF11A20895CF93DF93FC012685378552
:103C2000D901A05CBF4F8D919C91119701968F7324
:103C30009927E901CE5BDF4F4881598184179507A9
:103C4000D9F30D90BC91A02DA20FB31F6C93A68544
:103C5000B785A05CBF4F11969C938E93A689B789B8
:103C60002C9181E090E0078C02C0880F991F0A9484
:103C7000E2F7282B2C9381E081A30488F589E02DBD
:103C800080818064808381E090E0DF91CF9108950E
:103C900008951F920F920FB60F9211240BB60F9238
:103CA0002F933F934F938F939F93EF93FF935A9943
:103CB0001BC04CB1809104049091050401968F7350
:103CC000992720910604309107048217930769F021
:103CD000E0910404F0910504EC53FC4F4083909371
:103CE00005048093040401C08CB1FF91EF919F9172
:103CF0008F914F913F912F910F900BBE0F900FBE60
:103D00000F901F90189508951F920F920FB60F9263
:103D100011240BB60F922F933F934F938F939F9342
:103D2000EF93FF9380919B0082FD1CC040919C000B
:103D300080917C0390917D0301968F739927209148
:103D40007E0330917F038217930771F0E0917C032B
:103D5000F0917D03E45CFC4F408390937D0380935E
:103D60007C0302C080919C00FF91EF919F918F9105
:103D70004F913F912F910F900BBE0F900FBE0F9060
:103D80001F90189586ED92E00E94B31D892B11F0CB
:103D90000E94481E84EB92E00E94B31D892B11F013
:103DA0000C94831E08951F920F920FB60F92112448
:103DB0000BB60F922F933F938F939F93EF93FF93A5
:103DC0002091C0033091C1038091C2039091C3033D
:103DD0002817390711F4559813C0E091C203F091E8
:103DE000C303E058FC4F20818091C2039091C3032C
:103DF00001968F7399279093C3038093C2032CB9C4
:103E0000FF91EF919F918F913F912F910F900BBE5A
:103E10000F900FBE0F901F9018951F920F920FB624
:103E20000F9211240BB60F922F933F938F939F9372
:103E3000EF93FF93209138033091390380913A0337
:103E400090913B032817390731F480919A008F7DB8
:103E500080939A0014C0E0913A03F0913B03E8503C
:103E6000FD4F208180913A0390913B0301968F731F
:103E7000992790933B0380933A0320939C00FF91F2
:103E8000EF919F918F913F912F910F900BBE0F90CB
:103E90000FBE0F901F901895CF92DF92EF92FF9276
:103EA000CF93DF93EC016A017B01411581EE580746
:103EB00061057105F9F0EC89FD8981E090E008A0C9
:103EC00002C0880F991F0A94E2F7808360E079E0CE
:103ED0008DE390E0A70196010E945D2A21503109EF
:103EE000410951095695479537952795211580E148
:103EF000380798F0EC89FD89108260E874E88EE15B
:103F000090E0A70196010E945D2A215031094109E4
:103F100051095695479537952795E889F989308352
:103F2000EA89FB89208319A2EE89FF89408181E01B
:103F300090E09C010C8C02C0220F331F0A94E2F720
:103F4000422B4083EE89FF8940819C010D8C02C089
:103F5000220F331F0A94E2F7422B4083EE89FF8938
:103F600040819C010E8C02C0220F331F0A94E2F79D
:103F7000422B4083EE89FF8920810F8C02C0880F7D
:103F8000991F0A94E2F7809582238083DF91CF9175
:103F9000FF90EF90DF90CF9008951092D902109289
:103FA000D80288EE93E0A0E0B0E08093DA0290932C
:103FB000DB02A093DC02B093DD0227E831E030930E
:103FC000D7022093D60244EC53E05093E30240938F
:103FD000E20240E853E05093E5024093E40240E9F6
:103FE00050E05093E7024093E60249E250E05093DC
:103FF000E9024093E8024BE250E05093EB02409319
:10400000EA024AE250E05093ED024093EC0245E9A7
:1040100050E05093EF024093EE024CE250E0509398
:10402000F1024093F002E4E0E093F20273E0709357
:10403000F30267E06093F40255E05093F50241E02B
:104040004093F6021092B7021092B6028093B80223
:104050009093B902A093BA02B093BB023093B50219
:104060002093B4028CE393E09093C1028093C0024A
:1040700088EF92E09093C3028093C20288E990E0B7
:104080009093C5028093C40289E990E09093C7029F
:104090008093C6028BE990E09093C9028093C80296
:1040A0008AE990E09093CB028093CA028DE990E078
:1040B0009093CD028093CC028CE990E09093CF0254
:1040C0008093CE02E093D0027093D1026093D2022B
:1040D0005093D3024093D4020895CF92DF92EF928F
:1040E000FF920F931F93CF93DF936C017A01EB0143
:1040F000E60EF71E00E010E0CE15DF0561F06991D5
:10410000D601ED91FC910190F081E02DC601099559
:10411000080F191FF1CFC801DF91CF911F910F91A7
:10412000FF90EF90DF90CF9008956115710581F0B9
:10413000DB010D900020E9F7AD0141505109461B0C
:10414000570BDC01ED91FC910280F381E02D099485
:1041500080E090E00895EF92FF920F931F93CF932A
:10416000DF938C01FB01C0E0D0E064917F018FEF11
:10417000E81AF80A662361F0D801ED91FC910190EC
:10418000F081E02DC8010995C80FD91FF701EDCFC7
:10419000CE01DF91CF911F910F91FF90EF90089585
:1041A000DC01ED91FC910190F081E02D09948F925A
:1041B0009F92AF92BF92CF92DF92EF92FF920F93B6
:1041C0001F93CF93DF93CDB7DEB7A1970FB6F894C7
:1041D000DEBF0FBECDBF7C01C42EE52FCB01D22E9A
:1041E00019A221E02D1510F02AE0D22E8E010F5DCC
:1041F0001F4F8D2C912CA12CB12C6C2D7E2FA50145
:1042000094010E945D2A8C2DD29E801911240150A8
:1042100011098A3014F4805D01C0895CF801808343
:10422000211531054105510521F0C22EE32FCA01A8
:10423000E4CFB801C7010E949520A1960FB6F8946B
:10424000DEBF0FBECDBFDF91CF911F910F91FF90C9
:10425000EF90DF90CF90BF90AF909F908F90089598
:10426000CF92DF92EF92FF920F931F93CF93DF9342
:10427000EC016A017B012115310579F4E881F981AE
:104280000190F081E02D642FDF91CF911F910F916C
:10429000FF90EF90DF90CF9009942A303105E9F438
:1042A00077FF1AC06DE20E94D0208C014427552769
:1042B000BA014C195D096E097F092AE0CE010E94FE
:1042C000D720800F911FDF91CF911F910F91FF9009
:1042D000EF90DF90CF9008952AE0B701A601CE01BC
:1042E000DF91CF911F910F91FF90EF90DF90CF90D2
:1042F0000C94D7209A01AB01662757FD6095762F65
:104300000C9430214F925F926F927F928F929F9286
:10431000AF92BF92CF92DF92EF92FF920F931F93D3
:10432000CF93DF93EC016A017B01B22E9A01AB01BE
:10433000C701B6010E94352A882319F063E971E0AC
:1043400027C026013701E89477F82FEF3FEF4FE7BA
:104350005FE7C301B2010E94352A81110DC02FEF22
:104360003FEF4FE75FE7C301B2010E947F281816B5
:104370001CF467E971E00CC02FEF3FEF4FE75FE4FB
:10438000C701B6010E94CE291816ACF46BE971E0A2
:10439000CE01DF91CF911F910F91FF90EF90DF90B1
:1043A000CF90BF90AF909F908F907F906F905F90D5
:1043B0004F900C9495202FEF3FEF4FE75FECC70134
:1043C000B6010E947F2887FDE1CF20E030E0A901FF
:1043D000C701B6010E947F2887FF0AC06DE2CE01A7
:1043E0000E94D0208C01F7FAF094F7F8F09402C004
:1043F00000E010E0A12C60E070E080E09FE3AB14EF
:1044000041F020E030E040E251E40E948328A39490
:10441000F6CF9B01AC01C701B6010E941B286B01BE
:104420007C010E94F0282B013C010E941C299B0169
:10443000AC01C701B6010E941A286B017C012AE079
:10444000B301A201CE010E94D720080F191FBB2083
:1044500039F06FE971E0CE010E949520080F191F15
:104460007B2C772041F120E030E040E251E4C701AD
:10447000B6010E94D2296B017C010E94EB284B01FE
:10448000AA2497FCA094BA2C2AE030E0B501A4013C
:10449000CE010E943021080F191FC501B4010E94EE
:1044A0001E299B01AC01C701B6010E941A286B01AD
:1044B0007C017A94D6CFC801DF91CF911F910F91E3
:1044C000FF90EF90DF90CF90BF90AF909F908F9034
:1044D0007F906F905F904F9008950C948221009789
:1044E00029F0BC0180E090E00C940E2808954F92D2
:1044F0005F926F927F92AF92BF92CF92DF92EF92D4
:10450000FF920F931F93CF93DF93CDB7DEB72901AF
:104510003A01621B730B840B950B29893A894B89ED
:104520005C892A193B094C095D09298B3A8B4B8B15
:104530005C8B9B01AC0169897A898B899C890E947B
:10454000392AE418F50806091709A80197010E94FD
:104550007F2A2A0D3B1D4C1D5D1DCA01B901DF914B
:10456000CF911F910F91FF90EF90DF90CF90BF9070
:10457000AF907F906F905F904F90089508950E9444
:10458000541C0E94BE220E943C16C2ECDEE10E9436
:10459000081B2097E1F30E94C21EF9CF0C949526C8
:1045A0000C942D27CF93DF93EC0160E08E810E9465
:1045B000541D81E090E00E944A1C61E08E810E94BF
:1045C000541D81E090E00E944A1C60E08E810E94B0
:1045D000541D84E690E0DF91CF910C944A1CEF9239
:1045E000FF920F931F93CF93DF938C01C0E0D0E035
:1045F000E62EF12CB7010C2E02C0759567950A9432
:10460000E2F76170F801EC0FFD1F87810E94541DD5
:104610002196C430D10571F7C801DF91CF911F9168
:104620000F91FF90EF900C94D222EF92FF920F9394
:104630001F93CF93DF938C01C0E0D0E0E62EF12CE6
:10464000B7010C2E02C0759567950A94E2F7617068
:10465000F801EC0FFD1F87810E94541D2196C83080
:10466000D10571F7C801DF91CF911F910F91FF9094
:10467000EF900C94D2221F93CF93DF93EC01162F6F
:10468000642F8C810E94541D8D818F3F19F060E052
:104690000E94541D8F85612F84FF06C0CE01DF91DB
:1046A000CF911F910C94152370E084E07595679568
:1046B0008A95E1F7CE010E94EF22612FCE01DF91B2
:1046C000CF911F910C94EF2240E00C943B2361E0CA
:1046D0000E94642380ED97E00C944A1C443008F05B
:1046E00043E0FC012389421710F04FEF420FFC0119
:1046F000E40FF11D2489260F2068622F0C94642397
:10470000FC016089262F2460208B6C600C9464234C
:104710000F931F93CF93DF93EC01423018F08F85F6
:1047200088608F874B8B1C8A80E48D8B6E8B70E04A
:10473000605C7F4F6F8B222329F0413019F48F8505
:1047400084608F8761E08C810E941B1D8D818F3F6B
:1047500019F061E00E941B1D61E08E810E941B1D0B
:1047600000E010E08F8584FF03C088E090E002C085
:1047700084E090E00817190754F4FE01E00FF11FE0
:1047800061E087810E941B1D0F5F1F4FEBCF80E50B
:1047900093EC0E944A1C60E08C810E94541D60E0F2
:1047A0008E810E94541D8D818F3F19F060E00E9420
:1047B000541D6F8564FD1DC063E0CE010E94EF2291
:1047C00084E991E10E944A1C63E0CE010E94EF223D
:1047D00084E991E10E944A1C63E0CE010E94EF222D
:1047E00086E990E00E944A1C62E0CE010E94EF221E
:1047F00016C06062CE010E94642384E991E10E94A8
:104800004A1C6F856062CE010E94642386E990E0B5
:104810000E944A1C6F856062CE010E9464236F85EE
:104820006062CE010E94642384E0888BCE010E94E6
:104830008023CE010E94672382E0898B66E0CE014F
:10484000DF91CF911F910F910C9464238F92AF92BF
:10485000CF92EF920F93CF93DF93CDB7DEB7FC01EA
:104860007A855B853C851382128285EA91E091838B
:1048700080836483458326830783E086C186A2867E
:10488000838674875587368780E1878720E041E0FB
:1048900060E1CF01DF91CF910F91EF90CF90AF907A
:1048A0008F900C94882341E00E943B2381E090E0AC
:1048B00008951F920F920FB60F9211240BB60F920C
:1048C0002F933F934F935F936F937F938F939F9318
:1048D000AF93BF93EF93FF9380910A048F5F809310
:1048E0000A0420910A0480910B0490E0FC01EE0F71
:1048F000FF1FE80FF91FE45FFB4F818128130DC0F4
:1049000080910B0490E0FC01EE0FFF1FE80FF91FF0
:10491000E45FFB4F828184BD5FC020910A048091D7
:104920000B0490E0FC01EE0FFF1FE80FF91FE45F9E
:10493000FB4F8181821708F04FC080910B0490E0FB
:10494000FC01EE0FFF1FE80FF91FE45FFB4F8081B2
:1049500086FF0FC080910B0490E0FC01EE0FFF1F5B
:10496000E80FF91FE45FFB4F808160E08F730E94C6
:10497000541D80910B048F5F80930B0410920A04E6
:1049800014BC80910B04882309F180910B048930B9
:10499000E8F480910B0490E0FC01EE0FFF1FE80F9C
:1049A000F91FE45FFB4F808186FF16C080910B04E6
:1049B00090E0FC01EE0FFF1FE80FF91FE45FFB4FD3
:1049C000808161E08F730E94541D06C080910B04AA
:1049D000893010F010920B04FF91EF91BF91AF91CD
:1049E0009F918F917F916F915F914F913F912F9107
:1049F0000F900BBE0F900FBE0F901F901895209137
:104A00000904283030F42F5F20930904FC0120832F
:104A10000895FC01108208951F93CF93DF93EC015A
:104A2000162F80910804811127C0E1E1F4E095E0A0
:104A300083E3DF0111979C938083339624E0E9326E
:104A4000F207B9F78FE180930D0410920B041092D6
:104A50000A0497B717BE25B52B7F25BD25B5226063
:104A600025BD25B52E7F25BD14BC80E486BF90648E
:104A700097BF81E0809308048881882399F061E0E2
:104A8000812F0E941B1D288130E0F901EE0FFF1FCE
:104A9000E20FF31FE45FFB4F1F739081907C912B1B
:104AA000906490838881DF91CF911F910895FC01DC
:104AB000808190E0FC01EE0FFF1FE80FF91FE45F1B
:104AC000FB4F80818F7B80830895FC0180819FEF65
:104AD000980F983000F56039F1E07F073CF06D3DAC
:104AE00095E079072CF06CED75E002C060E971E0AB
:104AF0006850710990E09B01220F232F221F330B76
:104B0000FC01EE0FFF1FE80FF91FE45FFB4F21834D
:104B1000660F609562830895AF92BF92CF92DF9245
:104B2000EF92FF920F931F93CF93DF93EC018827AF
:104B300077FD8095982F1F921F9225E02F9326E4F2
:104B40002F93E2ECAE2EBB24B394C12CD12C14EBEA
:104B5000E12EF12C00E010E020E030E0A9010E94FD
:104B600077220F900F900F900F90CE01DF91CF9191
:104B70001F910F91FF90EF90DF90CF90BF90AF907B
:104B80000C946525CF92DF92EF92FF920F931F93C3
:104B9000CF93DF93C9EBD1E081EBE82E81E0F82ED3
:104BA00009EA11E0C880229661E08C2D0E941B1D4D
:104BB000F701D080F2E0EF0EF11C61E08D2D0E9434
:104BC0001B1D61E08C2D0E94541D61E070E08D2D55
:104BD0000E94921CF80180810E5F1F4F60E070E020
:104BE0000E94921CF1E0C13CDF07E1F6DF91CF911A
:104BF0001F910F91FF90EF90DF90CF9008950F934A
:104C00001F93CF93DF938B01EA01000F111F4F3FDA
:104C1000510509F03CF441308FEF58078CF057FFF5
:104C200003C010C0CFEFD0E0F801E754FE4F61E0C1
:104C300080810E94541DF801EF54FE4FBE0110C048
:104C4000C1E0DFEFF801E754FE4F60E080810E9491
:104C5000541D662777276C1B7D0BF801EF54FE4F20
:104C60008081DF91CF911F910F910C94921C82E370
:104C70000E948A1D21E030E0892B11F020E030E015
:104C8000C901089581E30E948A1D21E030E0892B4B
:104C900011F020E030E0C90108951F93CF93DF9316
:104CA000162FD82FDD0FDD0FDD0FC0E0612F8C2F09
:104CB0008D0F0E941B1DCF5FC830C1F7DF91CF91D0
:104CC0001F9108958F92AF92CF92EF920F9387E149
:104CD0008F9386E18F9385E18F9324E1822E33E1D8
:104CE000A32E42E1C42E51E1E52E00E12CE14BE17F
:104CF0006AE18CE294E00E9426248AE294E00E9419
:104D0000C22589E294E00E94FF2488E294E00E9498
:104D1000FF240F900F900F9087E294E00F91EF9097
:104D2000CF90AF908F900C94FF24CF93DF9382307D
:104D3000910510F482E090E0E0914604F091470480
:104D400020E030E0A0E0B0E0309739F140815181BF
:104D500048175907B8F04817590771F482819381B1
:104D6000109729F013969C938E9312972CC09093D2
:104D700047048093460427C02115310531F04217BE
:104D8000530718F0A901DB0101C0EF019A01BD0131
:104D9000DF010280F381E02DD7CF21153105F9F035
:104DA000281B390B2430310580F48A819B816115E1
:104DB000710521F0FB019383828304C09093470423
:104DC00080934604FE01329644C0FE01E20FF31FB9
:104DD0008193919322503109398328833AC02091DD
:104DE000440430914504232B41F420912501309156
:104DF00026013093450420934404209123013091EF
:104E000024012115310541F42DB73EB7409127010A
:104E100050912801241B350BE0914404F091450486
:104E2000E217F307A0F42E1B3F0B2817390778F081
:104E3000AC014E5F5F4F2417350748F04E0F5F1FE0
:104E400050934504409344048193919302C0E0E061
:104E5000F0E0CF01DF91CF910895CF93DF930097DA
:104E600009F487C0FC01329713821282C091460474
:104E7000D0914704209781F420813181280F391F78
:104E800080914404909145048217930779F5F0933B
:104E90004504E09344046DC0DE0120E030E0AE172D
:104EA000BF0750F412964D915C9113979D014115E7
:104EB000510509F1DA01F3CFB383A2834081518117
:104EC000840F951F8A179B0771F48D919C91119700
:104ED000840F951F02969183808312968D919C91E9
:104EE0001397938382832115310529F4F0934704A6
:104EF000E09346043EC0D9011396FC93EE931297BB
:104F00004D915D91A40FB51FEA17FB0779F48081DD
:104F10009181840F951F0296D90111969C938E93CF
:104F20008281938113969C938E931297E0E0F0E038
:104F30008A819B81009719F0FE01EC01F9CFCE0127
:104F4000029628813981820F931F20914404309169
:104F500045042817390769F4309729F4109247045B
:104F60001092460402C013821282D0934504C0936B
:104F70004404DF91CF9108958F929F92AF92BF9298
:104F8000CF92DF92EF92FF92CF93DF93EC01688193
:104F900079818A819B81611571058105910521F4D3
:104FA00064E279ED8BE597E02DE133EF41E050E0ED
:104FB0000E947F2A49015A019B01AC01A7EAB1E492
:104FC0000E94A42A6B017C01ACEEB4EFA501940110
:104FD0000E94B22AC60ED71EE81EF91EF7FE06C0B2
:104FE00081E0C81AD108E10880E8F80AC882D982AD
:104FF000EA82FB82C701B6019F77DF91CF91FF90D4
:10500000EF90DF90CF90BF90AF909F908F900895DA
:105010000C94BC2780E091E00C94BC2760930001C5
:105020007093010180930201909303010895F89415
:105030000C94DE2A5058BB27AA270ED075C166D122
:1050400030F06BD120F031F49F3F11F41EF45BC1BE
:105050000EF4E095E7FB51C1E92F77D180F3BA1741
:10506000620773078407950718F071F49EF58FC1E6
:105070000EF4E0950B2EBA2FA02D0B01B901900173
:105080000C01CA01A0011124FF27591B99F0593FB7
:1050900050F4503E68F11A16F040A22F232F342FFF
:1050A0004427585FF3CF469537952795A795F0404D
:1050B0005395C9F77EF41F16BA0B620B730B840B62
:1050C000BAF09150A1F0FF0FBB1F661F771F881F1A
:1050D000C2F70EC0BA0F621F731F841F48F4879572
:1050E00077956795B795F7959E3F08F0B3CF939561
:1050F000880F08F09927EE0F979587950895D9D0D6
:1051000008F481E008950CD00FC107D140F0FED023
:1051100030F021F45F3F19F0F0C0511139C1F3C0F4
:1051200014D198F39923C9F35523B1F3951B550B6B
:10513000BB27AA2762177307840738F09F5F5F4F6A
:10514000220F331F441FAA1FA9F333D00E2E3AF0AB
:10515000E0E830D091505040E695001CCAF729D0C5
:10516000FE2F27D0660F771F881FBB1F2617370714
:105170004807AB07B0E809F0BB0B802DBF01FF2744
:1051800093585F4F2AF09E3F510568F0B6C000C1AA
:105190005F3FECF3983EDCF3869577956795B7957E
:1051A000F7959F5FC9F7880F911D9695879597F999
:1051B0000895E1E0660F771F881FBB1F6217730712
:1051C0008407BA0720F0621B730B840BBA0BEE1F27
:1051D00088F7E095089504D06894B111D9C0089576
:1051E000BCD088F09F5790F0B92F9927B751A0F005
:1051F000D1F0660F771F881F991F1AF0BA95C9F76B
:1052000012C0B13081F0C3D0B1E00895C0C0672FA3
:10521000782F8827B85F39F0B93FCCF3869577951A
:105220006795B395D9F73EF4909580957095619503
:105230007F4F8F4F9F4F0895E89409C097FB3EF42E
:1052400090958095709561957F4F8F4F9F4F9923D3
:10525000A9F0F92F96E9BB279395F6958795779551
:105260006795B795F111F8CFFAF4BB0F11F460FF11
:105270001BC06F5F7F4F8F4F9F4F16C0882311F069
:1052800096E911C0772321F09EE8872F762F05C07D
:10529000662371F096E8862F70E060E02AF09A9518
:1052A000660F771F881FDAF7880F9695879597F90D
:1052B0000895990F0008550FAA0BE0E8FEEF1616A7
:1052C0001706E807F907C0F012161306E407F507FA
:1052D00098F0621B730B840B950B39F40A2661F06E
:1052E000232B242B252B21F408950A2609F4A14011
:1052F000A6958FEF811D811D089597F99F6780E81E
:1053000070E060E008959FEF80EC089500240A9417
:105310001616170618060906089500240A94121690
:105320001306140605060895092E0394000C11F4C3
:10533000882352F0BB0F40F4BF2B11F460FF04C070
:105340006F5F7F4F8F4F9F4F089557FD9058440FC9
:10535000551F59F05F3F71F04795880F97FB991FD4
:1053600061F09F3F79F08795089512161306140691
:10537000551FF2CF4695F1DF08C01616170618061E
:10538000991FF1CF86957105610508940895E894F9
:10539000BB2766277727CB0197F908958ADF08F4A2
:1053A0008FEF08950BD0C0CFB1DF28F0B6DF18F033
:1053B000952309F0A2CFA7CF1124EACFC6DFA0F32F
:1053C000959FD1F3950F50E0551F629FF001729F9A
:1053D000BB27F00DB11D639FAA27F00DB11DAA1FB9
:1053E000649F6627B00DA11D661F829F2227B00D06
:1053F000A11D621F739FB00DA11D621F839FA00D91
:10540000611D221F749F3327A00D611D231F849FE0
:10541000600D211D822F762F6A2F11249F57504037
:105420008AF0E1F088234AF0EE0FFF1FBB1F661FD2
:10543000771F881F91505040A9F79E3F510570F08B
:105440005CCFA6CF5F3FECF3983EDCF38695779573
:105450006795B795F795E7959F5FC1F7FE2B880F86
:10546000911D9695879597F9089523DF880B990BE1
:105470000895DB018F939F930E94A42ABF91AF915F
:10548000A29F800D911DA39F900DB29F900D11249E
:10549000089597FB072E16F4009407D077FD09D0E6
:1054A0000E94BB2A07FC05D03EF4909581959F4F42
:1054B0000895709561957F4F0895A1E21A2EAA1B59
:1054C000BB1BFD010DC0AA1FBB1FEE1FFF1FA217B4
:1054D000B307E407F50720F0A21BB30BE40BF50BB1
:1054E000661F771F881F991F1A9469F7609570953A
:1054F000809590959B01AC01BD01CF010895052ECB
:1055000097FB1EF400940E94962A57FD07D00E9434
:105510005D2A07FC03D04EF40C94962A50954095D2
:10552000309521953F4F4F4F5F4F0895909580954F
:10553000709561957F4F8F4F9F4F0895EE0FFF1F1E
:105540000590F491E02D09940E94CF2AA59F900D1B
:10555000B49F900DA49F800D911D11240895B7FF55
:105560000C94A42A0E94A42A821B930B08950790EE
:10557000F691E02D0994AA1BBB1B51E107C0AA1F9D
:10558000BB1FA617B70710F0A61BB70B881F991FE4
:105590005A95A9F780959095BC01CD010895A29FD9
:1055A000B001B39FC001A39F700D811D1124911DF7
:1055B000B29F700D811D1124911D089514E0CEEB52
:1055C000D4E000E006C022970109FE010BBF0E9453
:1055D000B72AC03CD10780E00807A9F7F894FFCFAD
:1055E000010000002F010000803F0000803F00000C
:1055F000803F0100020020002000C0FF540037015E
:105600007F01010000480480005E010800050002DF
:10561000000000010004000000010002000300007F
:105620000001000200030000000000000000000074
:105630000000000100000000000000010000000068
:1056400000000000000000F2108409BC09D009EC41
:10565000127F13210904091C011A01180116010502
:10566000000600000000000B1E6D20B31DE01DC7EA
:105670001D001E6E616E00696E66006F7666002EFC
:10568000000000000053246D20050004000100000C
:10569000001D001E00240025001800190026002708
:0256A000000008
:00000001FF
