:020000021000EC
:10F000000C9446F80C9465F80C9465F80C9465F82B
:10F010000C9465F80C9465F80C9465F80C9465F8FC
:10F020000C9465F80C9465F80C9465F80C9465F8EC
:10F030000C9465F80C9465F80C9465F80C9465F8DC
:10F040000C9465F80C9465F80C9465F80C9465F8CC
:10F050000C9465F80C9465F80C9465F80C9465F8BC
:10F060000C9465F80C9465F80C9465F80C9465F8AC
:10F070000C9465F80C9465F80C9465F80C9465F89C
:10F080000C9465F80C9465F80C9465F811241FBE77
:10F09000CFEFD0E1DEBFCDBF11E0A0E0B1E0E0E511
:10F0A000F8EF01E00BBF02C007900D92A230B1074C
:10F0B000D9F722E0A2E0B1E001C01D92AD30B20765
:10F0C000E1F70E9455F90C9426FC0C9400F89091FD
:10F0D0000501913021F45D9BFECF8CB908959230EB
:10F0E00031F490919B0095FFFCCF80939C00089594
:10F0F000CF93982F9595959595959595905D8F7053
:10F100008A3014F0C7E501C0C0E3C80F892F0E9400
:10F1100067F88C2FCF910C9467F8CF92DF92EF9223
:10F12000FF92809105018130D1F4C12CD12C760160
:10F130005F9913C08FEFC81AD80AE80AF80A81E469
:10F14000C81682E4D8068FE0E806F10488F3E0915F
:10F150000201F09103010995EBCF8CB120C0823000
:10F16000E9F4C12CD12C760180919B0087FD13C05E
:10F170008FEFC81AD80AE80AF80A81E4C81682E4B0
:10F18000D8068FE0E806F10478F3E0910201F091EF
:10F1900003010995E9CF80919C0001C080E0FF90B8
:10F1A000EF90DF90CF900895CF930E948DF8C82FF5
:10F1B0000E9467F8C13614F089EA03C0C0331CF01E
:10F1C00080ED8C0F01C08C2FCF910895CF930E94BA
:10F1D000D4F8C82F0E94D4F890E1C99F800D112463
:10F1E000CF91089590910501815078F0913021F4EC
:10F1F0005F9BFECF2CB1F8CF9230B1F720919B00EE
:10F2000027FFFCCF20919C00EFCF0895CF93C82F0C
:10F210000E948DF8803251F484E10E9467F88C2FAF
:10F220000E9467F880E1CF910C9467F88091040107
:10F230008F5F80930401853031F4E0910201F091F9
:10F240000301CF910994CF9108950E948DF88032E7
:10F2500031F484E10E9467F880E10C9467F88091B2
:10F2600004018F5F80930401853029F4E09102014D
:10F27000F0910301099408958823B1F0C79A2FEF04
:10F2800031EE94E0215030409040E1F700C00000A2
:10F29000C7982FEF31EE94E0215030409040E1F7D5
:10F2A00000C000008150E8CF089500008091610007
:10F2B0008F7780936100809161008F7B80936100E4
:10F2C0008091620080688093620080916200806417
:10F2D00080936200079902C081E003C0069903C0D1
:10F2E00082E080930501E0E0F0E0E491EF3F49F037
:10F2F00080910501811105C0E0910201F0910301A7
:10F30000099580910501811103C081E08093050179
:10F3100080910501813051F480E189B9109290000B
:10F320001BB886E08093950088E18AB98091050139
:10F33000823069F480E180939900109298001092D5
:10F340009B0086E080939D0088E180939A00BF9A9D
:10F35000809105010E943CF9FF24F3940E948DF8EE
:10F36000803309F442C08133E1F40E948DF8803289
:10F3700009F049C284E10E9467F881E40E9467F8BD
:10F3800086E50E9467F882E50E9467F880E20E94A5
:10F3900067F889E40E9467F883E50E9467F880E5D2
:10F3A00021C1803439F40E948DF88638F0F00E9433
:10F3B0008DF81BC08134A1F40E948DF8803811F4BF
:10F3C00082E003C0813821F481E00E9406F9C6CFB3
:10F3D000823811F480E1F9CF8839C1F583E0F5CFA7
:10F3E000823431F484E10E94F2F80E9425F9B6CF0C
:10F3F000853411F485E0F7CF982F9D7F9035A9F3E0
:10F40000813599F3853549F40E948DF88093060182
:10F410000E948DF880930701E8CF8635C9F40E94D9
:10F420008DF8803381F40E948DF80E948DF8182F9A
:10F430000E948DF8111102C08EE1C7CF113009F082
:10F44000BFCF87E9C2CF83E00E94F2F880E0BDCF52
:10F45000843609F0CDC00E948DF8809309020E9485
:10F460008DF88093080280910C028E7F80930C02AD
:10F470000E948DF8853429F480910C02816080937C
:10F480000C0208E011E080910802909109029801B5
:10F49000285031402817390730F40E948DF8F801C0
:10F4A00081938F01F0CF0E948DF8803209F0ABC1BB
:10F4B00080910C0280FF2AC0809106019091070183
:10F4C000880F991F909307018093060108E011E0CF
:10F4D0008091080290910902980128503140281724
:10F4E000390708F07EC0F80161918F018091060113
:10F4F000909107010E9419FC8091060190910701EB
:10F5000001969093070180930601E2CF8091070155
:10F51000880F880B8F2180930B028BBF809106018F
:10F5200090910701880F991F90930701809306011E
:10F530008091080280FF09C0809108029091090221
:10F5400001969093090280930802F894E199FECF06
:10F550001127E0910601F0910701C8E0D1E0809108
:10F56000080290910902103091F400916800017036
:10F570000130D9F303E000936800E895009168003A
:10F5800001700130D9F301E100936800E89509901A
:10F5900019900091680001700130D9F301E00093E7
:10F5A0006800E8951395103898F0112700916800CD
:10F5B00001700130D9F305E000936800E8950091EF
:10F5C000680001700130D9F301E100936800E8950B
:10F5D0003296029709F0C7CF103011F00296E5CFAE
:10F5E000112484E10E9467F880E10E9467F8B6CE9A
:10F5F000843709F05BC00E948DF8809309020E9455
:10F600008DF8809308028091060190910701209166
:10F610000C0297FF02C0226001C02D7F20930C02D4
:10F62000880F991F90930701809306010E948DF81F
:10F6300090910C02853411F4916001C09E7F9093EB
:10F640000C020E948DF8803209F088CE84E10E947D
:10F6500067F800E010E08091080290910902081715
:10F66000190710F620910C02809106019091070174
:10F6700020FF03C00E9411FC0BC021FD03C0FC0150
:10F68000849106C0A0E0B0E01196ABBFFC01879169
:10F690000E9467F88091060190910701019690936E
:10F6A0000701809306010F5F1F4FD5CF853781F487
:10F6B0000E948DF8803209F0A6C084E10E9467F8AC
:10F6C0008EE10E9467F887E90E9467F882E08ACF9E
:10F6D000863709F4BBCE813209F095C00E948DF8BF
:10F6E000813209F03BCE0E948DF8813209F036CE8E
:10F6F000BF9AC79810920A02E0910A02F0E0EF5F09
:10F70000FE4F8081882371F00E9467F880910A0281
:10F710008F5F80930A02F0CFB79B18C0C79881E330
:10F720000E9467F88AE00E9467F88DE00E9467F8FF
:10F730008AE30E9467F880E20E9467F80E948DF8D1
:10F74000182F0E9467F8143721F4E6CFC79A80E398
:10F75000E7CF1237B9F40E948DF80E9467F80E9433
:10F76000E6F8082F0E94E6F8182F8DE30E9467F84C
:10F77000E02FF0E0FE2FEE27E10FF11D80810E94C7
:10F7800078F8D0CF1737C1F40E948DF80E9467F83F
:10F790000E94E6F8082F0E94E6F8182F0E948DF8C4
:10F7A0000E9467F80E94E6F8E02FF0E0FE2FEE27B7
:10F7B000E10FF11D8083B6CF153729F40E948DF833
:10F7C0000E9467F8FBCF1236A9F482E60E9467F820
:10F7D00085E70E9467F883E70E9467F880E885BFA5
:10F7E00010926D0010926C00E0E0F1E18191309791
:10F7F000E9F7FACF1A3609F095CFE0910201F091BE
:10F80000030109958FCF809104018F5F80930401DC
:10F81000853009F0A3CDE0910201F0910301099533
:10F820009DCDE199FECF9FBB8EBBE09A99278DB30A
:10F830000895262FE199FECF9FBB8EBB2DBB0FB63F
:10F84000F894E29AE19A0FBE01960895F894FFCFDA
:02F85000800036
:040000031000F000F9
:00000001FF
