:100000000C9407010C9436010C9436010C943601C3
:100010000C9436010C9436010C9436010C94360184
:100020000C9436010C9436010C9449280C9436013A
:100030000C9436010C9436010C9436010C94360164
:100040000C94701E0C9436010C9436220C94C02231
:100050000C9436010C9436010C9436010C94360144
:100060000C9436010C9436010C9436010C94360134
:100070000C9436010C9436010C9471220C94FA22E3
:100080000C9436010C9436010C9436017D1FB11F7F
:10009000821F881F8E1FB11FB11F931F9D1FA71F97
:1000A000CF1FE01FC41FC71FCB1FE01FE01FD31FC0
:1000B000D71FDB1F20002000200020005E003E0034
:1000C0003C0076003E005E003C0076003F2000527F
:1000D0002000462000542000532000626567696EAE
:1000E00000507265737320535441525420746F0052
:1000F000616172647661726B20666C7569647321EC
:10010000006865617274206F6620636F6C642020E4
:100110002000736F792066726F6D206D792020202A
:1001200020200042656566696E67207465617273A0
:10013000206F6600000000000000000000000000CA
:1001400000000000000000000000000000000000AF
:100150000103040500000505090A00000000000075
:100160000000000000000000000102040810204010
:100170008001020408102040800102040810204081
:100180008001020408102040800102040810204071
:1001900080010204081020408001020408100404B9
:1001A000040404040404030303030303030301011D
:1001B000010101010101020202020202020205051F
:1001C00005050505050506060606060606060707D3
:1001D00007070700003900360033003000210020F7
:1001E00000630000003B003800350032002300624D
:1001F00000650000003A0037003400310022006141
:10020000006400001A064D1EBA235A2A511E1124FA
:100210001FBECFEFD0E1DEBFCDBF12E0A0E0B1E066
:10022000E2E8FBE500E00BBF02C007900D92AE3D97
:10023000B107D9F726E0AEEDB2E001C01D92A233BE
:10024000B207E1F712E0CCE0D2E000E006C022976E
:100250000109FE010BBF0E94882DC430D10780E048
:100260000807A9F70E94AE260C94E82A0C94000017
:10027000CF93DF93EC0182E196E00E94472961E091
:100280008FE10E94E11F81E196E00E94472961E031
:1002900082E20E94E11F40E855E260E070E080ECFD
:1002A00094E00E943923FE01ED5BFF4F4D895E898A
:1002B0006F89788D40835183628373833496498D2F
:1002C0005A8D6B8D7C8D40835183628373837096CE
:1002D0001082118212821382769781E090E09183DE
:1002E0008083C959DF4F1882DF91CF91089522E2B0
:1002F00031E0FC01318320830C947A0BCF93DF93A0
:10030000EC010E947701CE01DF91CF910C94BF26C2
:100310000F931F93CF93DF93EC010E94A70B82E210
:1003200091E09983888380E991E09C838B8340E00E
:1003300050E060E271E44D835E836F83788740E034
:1003400050E068E871E449875A876B877C871D868F
:100350001E861F86188A40E050E060EC7FE3498BE0
:100360005A8B6B8B7C8B00E010E02CE832E40D8B19
:100370001E8B2F8B388F40E050E06AE273E4498F88
:100380005A8F6B8F7C8F0D8F1E8F2F8F38A349A3B1
:100390005AA36BA37CA380E496E09EA38DA388EA76
:1003A00092E098A78FA300E010E028EC32E409A7C0
:1003B0001AA72BA73CA700E010E020E732E40DA726
:1003C0001EA72FA738AB49AB5AAB6BAB7CAB40E059
:1003D00050E060EA71E44DAB5EAB6FAB78AF40E0EC
:1003E00050E067E073E449AF5AAF6BAF7CAFFE01FA
:1003F000FD9640E050E060E272E440835183628306
:100400007383CE01DF91CF911F910F910C9438012E
:100410008F929F92AF92BF92CF92DF92EF92FF9214
:1004200085E00E94441FBC01882777FD8095982FA6
:100430000E94EF2B20E030E040EA50E40E94A32C21
:1004400020E030E040E85AE30E94A32C6B017C01DD
:1004500020E030E040E450E40E94A32C20E030E0B3
:1004600040E251E40E94EB2A22E630ED42E053E400
:100470000E94A32C4B015C0120E030E040EA50E4F4
:10048000C701B6010E94EB2A9B01AC01C501B40172
:100490000E94542B20E030E040E752E40E94EC2A16
:1004A000FF90EF90DF90CF90BF90AF909F908F9094
:1004B000089561308FEF780714F461E07FEFAB01AE
:1004C0006F3F710519F014F04FEF50E061E070E0FC
:1004D00084E196E00C94EF29CF92DF92EF92FF92A5
:1004E000CF93DF93EC01FC01E959FF4F80817C97AA
:1004F0002081318142815381882329F069857A8561
:100500008B859C8504C06D817E818F8198850E943A
:10051000A32C20E030E0A9010E94EC2A6B017C01B1
:10052000FE01E15BFF4F2081318142815381698966
:100530007A898B899C890E94A32C9B01AC01C701FD
:10054000B6010E94EC2A6B017C01FE01ED5AFF4FBF
:1005500020813181428153816D857E858F85988987
:100560000E94A32C9B01AC01C701B6010E94EC2A9A
:10057000DF91CF91FF90EF90DF90CF900895CF93D0
:10058000DF93EC0144E75FEF62E070E084E196E026
:100590000E94EF29FE01E959FF4F10826B817C8197
:1005A000882777FD8095982F0E94EA1E40E050E052
:1005B00062E070E084E196E0DF91CF910C94EF2946
:1005C000CF93DF93EC0186E196E00E94572763E129
:1005D00071E086E196E00E94BD24CE010E940802EF
:1005E000AB01BC0122E030E086E196E0DF91CF91E3
:1005F0000C945C262F923F924F925F926F927F9263
:100600008F929F92AF92BF92CF92DF92EF92FF9222
:100610000F931F93CF93DF93CDB7DEB728970FB615
:10062000F894DEBF0FBECDBF8C010E940802780196
:100630002BE5E20EF11CF7016083718382839383C3
:100640000E94C61E0E94ED2B4B015C011801FFE5C4
:100650002F0E311CF10160837183828393837C9719
:100660002081318142815381F701608171818281D2
:1006700093810E94EB2A6B017C01C801855B9F4F2F
:100680009A838983FC01C082D182E282F3820C9634
:100690009C838B83FC0140805180628073800C9628
:1006A0009E838D83FC012081318142815381C5016C
:1006B000B4010E94EB2A4B015C01C801815B9F4F92
:1006C00098878F83A3019201C701B6010E94EB2A8C
:1006D000A50194010E94542B20E034E244E759E440
:1006E0000E94A32CEF81F8856083718382839383BA
:1006F000C8018D5A9F4F98878F83A3019201C7012C
:10070000B6010E94EC2A20E030E040E05FE30E9466
:10071000A32CA50194010E94A32C20E034E244E71D
:1007200059E40E94542B9B01AC01EF81F885608154
:100730007181828193810E94EC2AEF81F885608328
:10074000718382839383C8010E946C020E94BC2B38
:10075000C8010E945902F801E95BFF4F6081718175
:10076000828193810E94BC2B83E196E00E947C29C8
:10077000F10180819181A281B381ED81FE8180832D
:100780009183A283B383E981FA8180819181A281DF
:10079000B381EB81FC8180839183A283B383780151
:1007A000F1E4EF0EF11CF7018081918169E170E0C5
:1007B0000E941A2D892B41F4C8010E94E00281E0B9
:1007C00090E0F70191838083F70180819181019608
:1007D0009183808328960FB6F894DEBF0FBECDBFFD
:1007E000DF91CF911F910F91FF90EF90DF90CF900D
:1007F000BF90AF909F908F907F906F905F904F9041
:100800003F902F9008950E94FA026AE070E080E025
:1008100090E00C94EA1ECF92DF92EF92FF92CF937A
:10082000DF93EC018091E2020E945020892B09F4B1
:100830005EC08091E0020E945020892B09F457C0CD
:1008400086E196E00E94572765E171E086E196E037
:100850000E94BD244CE850E062E070E084E196E044
:100860000E94EF290E94BA1E6B017C01CE010E94FA
:10087000FA028091E2020E945020892BB1F080910F
:10088000E0020E945020892B29F4FE01E959FF4F14
:10089000108210C00E94BA1E6C197D098E099F0932
:1008A000613D77408105910508F381E0FE01E9593A
:1008B000FF4F8083FE01E959FF4F8081882371F04B
:1008C00044E150E062E070E084E196E0DF91CF9196
:1008D000FF90EF90DF90CF900C94EF29CE01DF9145
:1008E000CF91FF90EF90DF90CF900C94BF02DF91FB
:1008F000CF91FF90EF90DF90CF9008958F929F92CD
:10090000AF92BF92EF92FF920F931F93CF93DF931B
:10091000EC010E94BA1E4B015C018E010D5B1F4F62
:10092000FE01FD9680819181A281B381F8018083CF
:100930009183A283B3837E01F7E4EF0EF11C89ADAE
:100940009AADABADBCADF70180839183A283B38335
:100950000E94BA1E681979098A099B09643F71408F
:100960008105910520F4CE010E94FA02F1CF8DA5F8
:100970009EA5AFA5B8A9F80180839183A283B38314
:1009800089A59AA5ABA5BCA5F70180839183A28315
:10099000B3830E94BA1E681979098A099B09683EC7
:1009A00073408105910520F4CE010E94FA02F1CF37
:1009B000FE01E959FF4F8081882389F08D8D9E8D3E
:1009C000AF8DB8A1F80180839183A283B383FE0128
:1009D000E95BFF4F89A19AA1ABA1BCA10EC08D8993
:1009E0009E89AF89B88DF80180839183A283B383F8
:1009F000898D9A8DAB8DBC8DF70180839183A28305
:100A0000B383DF91CF911F910F91FF90EF90BF9033
:100A1000AF909F908F9008959F92AF92BF92CF9288
:100A2000DF92EF92FF920F931F93CF93DF93EC012E
:100A3000962E8C01095B1F4F89A59AA5ABA5BCA575
:100A4000F80180839183A283B3835E01F3E4AF0E48
:100A5000B11C8DA59EA5AFA5B8A9F5018083918392
:100A6000A283B3830E94BA1E6B017C010E94BA1E4E
:100A70006C197D098E099F09643F714081059105BC
:100A800020F4CE010E94FA02F1CF89AD9AADABAD50
:100A9000BCADF80180839183A283B383FE01FD96F0
:100AA00080819181A281B381F50180839183A283AA
:100AB000B3830E94BA1E6C197D098E099F09683E96
:100AC00073408105910520F4CE010E94FA02F1CF16
:100AD0008DA99EA9AFA9B8ADF50180839183A283AA
:100AE000B38389A99AA9ABA9BCA9F8018083918392
:100AF000A283B3830E94BA1E6C197D098E099F09D7
:100B00006C3D75408105910548F4CE010E94FA02C2
:100B10008091DE020E945020892B61F7992021F0FC
:100B2000CE010E940B0403C0CE010E94BF02CE0181
:100B3000DF91CF911F910F91FF90EF90DF90CF90B9
:100B4000BF90AF909F900C947E048F929F92AF9233
:100B5000BF92CF92DF92EF92FF92CF93DF93EC019F
:100B60006A01662311F060E001C061E082E20E9448
:100B70001A200E94BA1E4B015C01E12CF12CEC14EE
:100B8000FD0434F50E94BA1E681979098A099B0987
:100B90006B3071058105910538F0CE010E94FA0293
:100BA0000E94BA1E4B015C0161E08FE10E941A2095
:100BB0008DA19EA10E94101F60E08FE10E941A206B
:100BC0008DA19EA10E94101F8FEFE81AF80AD7CFBF
:100BD0000E942F2A892B21F4CE010E94FA02F8CF1D
:100BE000DF91CF91FF90EF90DF90CF90BF90AF90CB
:100BF0009F908F9008950F931F93CF93DF93EC01F5
:100C0000162F042F4FA158A50E94A505602FCE01D5
:100C10000E940C054FA158A561E06127CE01DF912C
:100C2000CF911F910F910C94A50589599F4FFC01FD
:100C3000808108958CE090E09093E3028093E2023B
:100C40008DE090E09093E1028093E0028EE090E0EE
:100C50009093DF028093DE02089520E431E0FC01EE
:100C6000318320830C947A0BCF93DF93EC010E94A5
:100C70002D06CE01DF91CF910C94BF26FC0125817A
:100C8000332727FD309580E090E0A901082E02C0AF
:100C9000559547950A94E2F740FD06C001968430C9
:100CA000910599F780E0089581E00895CF93DF934F
:100CB000EC01A881B981EA81FB819D0143E0369571
:100CC00027954A95E1F7A770BB27E20FF31F66232C
:100CD00071F02081332727FD309541E050E002C0BC
:100CE000440F551FAA95E2F7242B352B0FC021E0A6
:100CF00030E002C0220F331FAA95E2F7209530950D
:100D00004081552747FD5095242335232083DF91CB
:100D1000CF910895AF92BF92CF92DF92EF92FF9260
:100D20000F931F93CF93DF9300D000D0CDB7DEB7E2
:100D30008C017C01C12CD12CE0910401F0910501C2
:100D4000EC0DFD1D80810E945020F701892B19F4C4
:100D5000178216820CC086819781F8012381348125
:100D60008217930724F40196F70197838683F2E0B4
:100D7000CF0ED11C82E0E80EF11C98E0C916D10418
:100D8000D9F66801E12CF12CF80135965F01F601E6
:100D900026813781F80183819481BC82AB82FA82FB
:100DA000E9822817390714F061E001C060E0CE0144
:100DB00001960E945606FFEFEF1AFF0A82E0C80E66
:100DC000D11C94E0E916F10411F70F900F900F90E9
:100DD0000F90DF91CF911F910F91FF90EF90DF90D7
:100DE000CF90BF90AF900895CF93DF93EC010E9416
:100DF000770B1D821F821E82198618861B861A8613
:100E00001D861C86C0E0D0E0E0910401F091050150
:100E1000EC0FFD1F60E080810E94E11F2296C83028
:100E2000D10591F7DF91CF910895CF93DF93EC0136
:100E30000E94A70B80E491E09983888385E090E08D
:100E40009C838B831D821E82CE01DF91CF910C94F7
:100E5000F4060C94990B08952AE531E0FC013183E6
:100E600020830C947A0BCF93DF93EC010E942C0724
:100E7000CE01DF91CF910C94BF260F931F93CF9398
:100E8000DF938C01E0910601F091070180810E94BF
:100E9000441FEC01E0910601F091070182810E945C
:100EA000441FAC01F801238134812C173D0764F401
:100EB000281739071CF08FEF9FEF0CC08C179D0788
:100EC000D4F381E090E006C081E090E0241735077C
:100ED0000CF080E0DF91CF911F910F9108950F9357
:100EE0001F93CF93DF93EC01E0910601F09107018E
:100EF00080810E94441F8C01E0910601F09107015E
:100F000082810E94441F2B813C81201731073CF0D5
:100F100041E0281739070CF040E0842F01C081E040
:100F2000DF91CF911F910F9108950C94770BCF9380
:100F3000DF93EC010E94A70B8AE591E099838883F7
:100F400080E092E09C838B83CE01DF91CF910C9463
:100F5000770B0C94990B20E731E0FC01318320835F
:100F60000C943E0BCF93DF93EC010E94AB07CE01B4
:100F7000DF91CF910C94BF26CF92DF92EF92FF9238
:100F80000F931F93CF93DF93EC017B018C819D81A5
:100F90008C010F5F1F4F8017910708F046C04A81F0
:100FA0005B814017510750F509964817590730F5EE
:100FB000C880D9809B838A83880F991F0E94BD2691
:100FC000998388834C815D81F60120E030E024170D
:100FD000350789F0A881B981B901660F771FA60F7F
:100FE000B71F109721F0608171816D937C932F5F03
:100FF0003F4F3296ECCFC6010E94BF268C819D8167
:101000009C01220F331F8017910790F4E881F9812A
:10101000E20FF31F309729F0D7014D915C91518376
:10102000408301962E5F3F4FEECF0817190710F44B
:101030001D830C83DF91CF911F910F91FF90EF9053
:10104000DF90CF9008950C94910AAF92BF92CF9207
:10105000DF92EF92FF920F931F93CF93DF9300D015
:10106000CDB7DEB78C017B015A01690163E070E006
:101070000E945A0B80E791E0F80191838083F78604
:10108000E686B18AA08AD38AC28AC8010E94910AE0
:10109000FA82E982095F1F4FBE016F5F7F4FC8016F
:1010A0000E94BC07BA82A982BE016F5F7F4FC80150
:1010B0000E94BC07DA82C982BE016F5F7F4FC80100
:1010C0000E94BC070F900F90DF91CF911F910F915D
:1010D000FF90EF90DF90CF90BF90AF900895CF93A7
:1010E000DF93EC010E94980A888999890E946F0712
:1010F0008823A1F0888999890E943D079C018E85EB
:101100009F852130310519F440E061E005C02F3F93
:101110003F4F21F440E060E00E94FB058E859F85F3
:101120000E941506811102C01D821C82DF91CF91A1
:101130000895CF93DF93EC010E94CC0A8E859F85A2
:10114000DC01ED91FC910680F781E02D09958A89FB
:101150009B89DC01ED91FC910680F781E02D0995DA
:1011600088899989DC01ED91FC910680F781E02D59
:10117000DF91CF910994CF93DF93EC010E94210B73
:101180008E859F85DC01ED91FC910484F585E02D31
:1011900009958A899B89DC01ED91FC910484F58590
:1011A000E02D099588899989DC01ED91FC910484F1
:1011B000F585E02DDF91CF9109942AE831E0FC011B
:1011C000318320830C943E0BCF93DF93EC010E947C
:1011D000DD08CE01DF91CF910C94BF26CF93DF9332
:1011E000EC0188899989DC01ED91FC910480F581FD
:1011F000E02D09958C899D89DC01ED91FC9104809D
:10120000F581E02D09958C899D890E943E068823F1
:1012100031F088899989DF91CF910C94BC13DF91CB
:10122000CF910895FC01808991890C940A180C943F
:10123000910A8F929F92AF92BF92CF92DF92EF92DC
:10124000FF920F931F93CF93DF9300D0CDB7DEB7FC
:101250007C014B015A01690160E070E00E945A0B69
:101260008AE891E0F7019183808397868686B18A28
:10127000A08AD38AC28A158B048BC7010E94910A67
:101280009A828982F7E0EF0EF11CBE016F5F7F4FFB
:10129000C7010E94BC07BA82A982BE016F5F7F4F5F
:1012A000C7010E94BC071A830983BE016F5F7F4F8D
:1012B000C7010E94BC07DA82C982BE016F5F7F4FFF
:1012C000C7010E94BC070F900F90DF91CF911F9133
:1012D0000F91FF90EF90DF90CF90BF90AF909F90D5
:1012E0008F900895CF93DF93EC010E94CC0A8889F8
:1012F0009989DC01ED91FC910680F781E02D09953B
:101300008C899D89DC01ED91FC910680F781E02DAF
:10131000DF91CF910994CF93DF93EC010E94210BD1
:1013200088899989DC01ED91FC910484F585E02D93
:1013300009958C899D89DC01ED91FC910484F585EA
:10134000E02DDF91CF91099427EC31E0FC0131834E
:1013500020830C943E0BCF93DF93EC010E94A409F1
:10136000CE01DF91CF910C94BF26CF93DF93EC0198
:101370008A899B890E943E06888999890E94BF0BB1
:10138000882379F186E196E00E9457278889998918
:101390000E94C20B019749F460EA71E086E196E091
:1013A0000E94BD2441E061E00EC0888999890E94B5
:1013B000C20B019661F462EB71E086E196E00E9457
:1013C000BD2441E060E08E859F850E94FB058E85EF
:1013D0009F850E941506882321F082E090E09D837E
:1013E0008C83DF91CF9108950C94910AAF92BF92B4
:1013F000CF92DF92EF92FF920F931F93CF93DF93E1
:1014000000D0CDB7DEB78C017B015A01690161E0E4
:1014100070E00E945A0B87EC91E0F8019183808381
:10142000F786E686B18AA08AD38AC28AC8010E945A
:10143000910AFA82E982095F1F4FBE016F5F7F4FF9
:10144000C8010E94BC07DA82C982BE016F5F7F4F6C
:10145000C8010E94BC07BA82A982BE016F5F7F4F9C
:10146000C8010E94BC070F900F90DF91CF911F9190
:101470000F91FF90EF90DF90CF90BF90AF900895C5
:10148000CF93DF93EC010E94CC0A8E859F85DC010F
:10149000ED91FC910680F781E02D09958A899B8961
:1014A000DC01ED91FC910680F781E02D099588899A
:1014B0009989DC01ED91FC910680F781E02DDF91A7
:1014C000CF9109940C94210B21EE31E0FC01318382
:1014D00020830C943E0BCF93DF93EC010E94640AAF
:1014E000CE01DF91CF910C94BF26CF93DF93EC0117
:1014F00062E070E00E945A0B81EE91E0998388834C
:10150000DF91CF9108950C94910A0C94980A0C9451
:10151000CC0A0C94210B2BEF31E0FC0131832083AA
:101520000895FC01168282819381958384830895B6
:10153000EF92FF920F931F93CF93DF93DC011796E7
:10154000ED90FC9018971B96CD91DC911C97CC0FD9
:10155000DD1FCE0DDF1DEC16FD06B9F0F701019180
:1015600011917F01D801ED91FC910684F785E02D62
:10157000C8010995882379F3D801ED91FC91048085
:10158000F581E02DC8010995E6CFDF91CF911F913C
:101590000F91FF90EF90089521E0FC0126830895BC
:1015A0000F931F93CF93DF93EC01E881F9810088BB
:1015B000F189E02D0995E881F9810284F385E02D18
:1015C000CE0109950F8118850B84DC85C02DCC0FC9
:1015D000DD1FC00FD11F0C171D0761F0D8018D91C1
:1015E0009D918D01DC01ED91FC910084F185E02D50
:1015F0000995F1CFDF91CF911F910F9108950F932E
:101600001F93CF93DF93FC01168207811085C3855A
:10161000D485CC0FDD1FC00FD11F0C171D0761F043
:10162000D8018D919D918D01DC01ED91FC91028499
:10163000F385E02D0995F1CFDF91CF911F910F91A7
:101640000895CF93DF93EC01E881F9810284F3855B
:10165000E02D099581E08E83DF91CF910895FC0103
:1016600086810895FC0184819581089508952BEF6A
:1016700031E0FC01318320830C94BF26CF93DF93AC
:10168000EC018FE092E0998388838F8198850E9496
:10169000BF268BEF91E099838883DF91CF910895E6
:1016A000CF93DF93EC010E943E0BCE01DF91CF91EF
:1016B0000C94BF26CF93DF93EC018FE092E09983E7
:1016C00088837B836A837D836C831E8218861F8256
:1016D00088E090E09A8789871C861B8680E190E0ED
:1016E0000E94BD2698878F83DF91CF910895FC01DA
:1016F000128208952BEF31E0FC013183208308959D
:1017000021E0FC0122830895CF93DF93EC01E8816F
:10171000F9810088F189E02D0995E881F981028439
:10172000F385E02DCE01DF91CF910994FC01128267
:10173000089521E0FC0122830895FC01828108952F
:101740002BEF31E0FC01318320830C94BF2629E28A
:1017500032E0FC01318320831282089527E432E0D5
:10176000FC01318320830C947A0BCF93DF93EC013F
:101770000E94AE0BCE01DF91CF910C94BF26FC01ED
:1017800082850895FC01838594850895FC0110826B
:1017900011820895DC012D913C9111971296ED91E3
:1017A000FC911397C90143E0969587954A95E1F717
:1017B000E80FF91F8081992787FD909527703327BF
:1017C00002C0959587952A95E2F7817008950F9349
:1017D0001F93CF93DF9300D000D0CDB7DEB78C013D
:1017E000035F1F4F1C830B8381E090E09A83898302
:1017F000CE0101960E94CA0B811109C082E090E0DF
:101800009A838983CE0101960E94CA0B01C081E0B0
:101810000F900F900F900F90DF91CF911F910F912C
:1018200008950F931F93CF93DF9300D000D0CDB7CF
:10183000DEB78C01035F1F4F1A8219821C830B8352
:10184000CE0101960E94CA0B811109C083E090E08D
:101850009A838983CE0101960E94CA0B01C081E060
:101860000F900F900F900F90DF91CF911F910F91DC
:101870000895FB01A3E0F695E795AA95E1F7677057
:101880007727E80FF91F4130510569F4208133278C
:1018900027FD3095DA0102C0AA0FBB1F6A95E2F757
:1018A0002A2B3B2B0FC021E030E002C0220F331F58
:1018B0006A95E2F7209530954081552747FD509570
:1018C00024233523208308954F925F926F927F9255
:1018D0008F929F92AF92BF92CF92DF92EF92FF9240
:1018E0000F931F93CF93DF9300D000D0CDB7DEB717
:1018F0007C018C01C12CD12C5C0186E3A80EB11CAB
:101900002701EDE04E0E511CF801668C778CF70133
:1019100083809480BC82AB82DA82C982CE01019638
:101920000E94CA0B81110FC0F70185819681F801D1
:1019300026A137A12817390734F041E026A537A59D
:10194000281739070CF440E0681479040CF440E0DF
:1019500050E0B601C2010E94390CFFEFCF1ADF0A36
:101960000E5F1F4F84E0C816D10471F60F900F90E0
:101970000F900F90DF91CF911F910F91FF90EF90FB
:10198000DF90CF90BF90AF909F908F907F906F909F
:101990005F904F9008952F923F924F925F926F9277
:1019A0007F928F929F92AF92BF92CF92DF92EF92EF
:1019B000FF920F931F93CF93DF9300D000D0CDB74A
:1019C000DEB78C017C01C12CD12CD7011E968D91E4
:1019D0009C911F9757969C938E935697E091080180
:1019E000F0910901EC0DFD1D80810E94441FF7015B
:1019F00097878687F2E0CF0ED11C82E0E80EF11CBB
:101A000098E0C916D10409F77801C12CD12CD8016E
:101A1000D6964D01FE0131965F01212C312C21011A
:101A20002394D7011E968D919C911F9756962D91C8
:101A30003C915797821B930B9C828B82DA82C982DE
:101A40001816190614F1C5010E94CA0B882331F03B
:101A500081E090E0F70197A786A710C0D7019E9676
:101A60008D919C919F97F80125813681821793076C
:101A70002CF401969F969C938E939E9740E050E0A5
:101A8000B601C4010E94390C3EC0C5010E94CA0BB8
:101A9000811108C0E1E0F0E0D7019796FC93EE9346
:101AA000969710C0D70196968D919C919797F801C3
:101AB00025813681821793072CF4019697969C9383
:101AC0008E939697C5010E94C60B612C712CB201B2
:101AD000A101062C04C076956795579547950A9401
:101AE000D2F7B301C5010E94390CFFEF6F1A7F0ACC
:101AF00084E06816710459F7A814B90421F08981AB
:101B0000D801D6968C93BFEFCB1ADB0AE2E0EE0E3B
:101B1000F11CF4E0CF16D10409F083CFD801179659
:101B20004D915C9118979801285F3F4FF801868589
:101B30009785481759071CF0178E168E0DC0868D95
:101B4000978DD80113966D917C91149786179707FE
:101B50001CF40196978F868F3296E217F30739F7B8
:101B6000C8010E94640CC8010E94E70B882321F081
:101B700081E0F80181870CC0C8010E94110C882304
:101B800039F0D80119961C92199781E01A968C9316
:101B90000F900F900F900F90DF91CF911F910F91A9
:101BA000FF90EF90DF90CF90BF90AF909F908F907D
:101BB0007F906F905F904F903F902F900895CF93BC
:101BC000DF93EC010E94770B19861A861C861B8610
:101BD000CE010D960E94C60BCE01C6960E94C60B82
:101BE00084E090E021E030E01F861E861F8A1E8A76
:101BF0001F8E1E8E1FA21EA23FA72EA70197229600
:101C0000009791F7DF91CF910895CF93DF93EC0187
:101C10000E94A70B87E492E09983888384E190E097
:101C20009C838B838AE090E09E838D8388E592E09D
:101C300098878F83CE010D960E94C60B88E0FE0127
:101C40003E96DF01982F1D929A95E9F73896DF01AD
:101C5000982F1D929A95E9F73896DF01982F1D92DB
:101C60009A95E9F73896DF01982F1D929A95E9F732
:101C70003896DF011D928A95E9F7CE01C6960E943B
:101C8000C60BCE01DF91CF910C94DF0D0C94990B14
:101C9000CF93DF93EC018C899D89DC01ED91FC9160
:101CA0000288F389E02D09958130910581F034F4A3
:101CB000892BB1F4CE01825A9E4F10C0823091051B
:101CC00051F0039769F4CE0188579E4F07C0CE01AB
:101CD0008C589E4F03C0CE0184569E4F9F8B8E8B97
:101CE000DF91CF910895CF93DF93EC018C899D898B
:101CF000DC01ED91FC910684F785E02D09958823A0
:101D000091F08C899D89DC01ED91FC910284F38531
:101D1000E02D09958E899F89DC01ED91FC9106806B
:101D2000F781E02D09958E899F899D8B8C8BDF91A2
:101D3000CF9108952F923F924F925F926F927F9230
:101D40008F929F92AF92BF92CF92DF92EF92FF92CB
:101D50000F931F93CF93DF9300D000D0CDB7DEB7A2
:101D60009C838B8304E010E0DC0111961C930E939E
:101D700085E090E013969C938E93129788EC90E008
:101D800015969C938E93149717961C921E921697F5
:101D90001B961C921E921A978CE0E82EF12C199635
:101DA000FC92EE92189788E190E00E94BD266C01AB
:101DB000EB81FC818683D7822285338524303105EF
:101DC00008F055C0208531852430310568F5F1864D
:101DD000E08688E190E00E94BD26AB81BC81179629
:101DE0009C938E9316971A964D915C911B97C60102
:101DF00020E030E024173507A1F0EB81FC81A681BB
:101E0000B781B901660F771FA60FB71F109729F08A
:101E1000FC01608171816D937C932F5F3F4F02962F
:101E2000E9CFC6010E94BF26AB81BC811A968D9175
:101E30009C911B979C01220F331F8430910580F4E5
:101E4000AB81BC811696ED91FC911797E20FF31FC1
:101E5000309711F01182108201962E5F3F4FEDCF27
:101E600084E090E0EB81FC819387828709C0243075
:101E7000310531F0AB81BC811B961C930E931A97F0
:101E8000EB81FC8116861586128A118A0DE010E01E
:101E9000108B07878AE190E00E94BD267C01AB8110
:101EA000BC811D968C931D971E96FC921E97519691
:101EB0002D913C9152972530310508F055C01F9661
:101EC0002D913C9150972530310558F550961C9333
:101ED0000E931F978AE190E00E94BD26EB81FC8162
:101EE0009687858741895289C70120E030E0241711
:101EF0003507A1F0EB81FC81A585B685B901660F98
:101F0000771FA60FB71F109729F0FC016081718120
:101F10006D937C932F5F3F4F0296E9CFC7010E94DC
:101F2000BF26AB81BC8151968D919C9152979C01AB
:101F3000220F331F8530910580F4AB81BC811D9643
:101F4000ED91FC911E97E20FF31F309711F0118273
:101F5000108201962E5F3F4FEDCF85E090E0EB8140
:101F6000FC81928B818B0BC02530310541F085E0DF
:101F700090E0AB81BC8152969C938E9351976B807D
:101F80007C80B8E16B0E711CC3010E94921CAB8077
:101F9000BC80ECEAAE0EB11CC5010E94050ECB80E0
:101FA000DC80F3EECF0ED11CC6010E941507EB803A
:101FB000FC8081EFE80EF11CC7010E9488014B8074
:101FC0005C80A7EA4A1AAEEF5A0AC2010E9497073C
:101FD0008B809C80B2EA8B1ABEEF9B0A860195012A
:101FE000A301B701C4010E9419090B811C810C587F
:101FF0001E4F9601A501B701C8010E94F6092B806A
:102000003C80E8E72E1AEEEF3E0A9601A201B701E6
:10201000C1010E9425082B813C8124563E4FC901F5
:1020200029833A830E94750AEB81FC81E455FE4FB7
:102030001082EB81FC81E355FE4F81E08083EB81D0
:10204000FC81E255FE4F81E090E091838083AB817B
:10205000BC811D96ED91FC911E97718260821D9648
:10206000ED91FC911E97B382A2821D96ED91FC9199
:102070001E97D582C4821D96ED91FC911E97F78222
:10208000E6821D96ED91FC911E975186408616962C
:10209000ED91FC911797918280821696ED91FC91BB
:1020A0001797138302831696ED91FC91179735824B
:1020B00024821696ED91FC91179729813A813783F6
:1020C000268355969C928E92549757969C928E9208
:1020D0005697FD01E655FE4F118210820F900F902A
:1020E0000F900F90DF91CF911F910F91FF90EF9084
:1020F000DF90CF90BF90AF909F908F907F906F9028
:102100005F904F903F902F90089584559E4FFC0113
:10211000808108950F931F93CF93DF93EC018C89F7
:102120009D89DC01ED91FC910684F785E02D0995F0
:102130008E0106551E4F882319F18C899D89DC017B
:10214000ED91FC910480F581E02D0995FE01E355A8
:10215000FE4F80818823A1F0F801208131818C819C
:102160009D812817390764F08C899D89DC01ED91E8
:10217000FC910488F589E02D0995F80111821082FF
:10218000CE010E94480E2E893F898C899D8928178F
:10219000390719F0CE010E94730ED8018D919C91E0
:1021A00011972C813D81821793071CF401968D9322
:1021B0009C93C255DE4F68817981882777FD809591
:1021C000982FDF91CF911F910F910C94EA1EFC0183
:1021D000E455FE4F21E02083DC0154968D919C91C3
:1021E0005597DC01ED91FC910680F781E02D099473
:1021F000FC01E455FE4F21E02083DC0154968D91D3
:102200009C915597DC01ED91FC910484F585E02DBE
:102210000994CF93DF93EC0184569E4F0E94640A89
:10222000CE0188579E4F0E94AB07CE018C589E4F1F
:102230000E94A409CE01825A9E4F0E94DD08CE0161
:10224000875A9E4F0E942C07CE018F509F4F0E94AD
:102250007701CE018D519F4F0E942D06CE018455EE
:102260009F4F0E94AE0BCE0148960E9431158D857E
:102270009E850E94BF268E819F81DF91CF910C9415
:10228000BF26FC0145A556A520E030E0FC01E20F89
:10229000F31FE457FF4F60817181641775073CF0AD
:1022A0002E5F3F4F2830310589F781E0089580E0A7
:1022B0000895FC0125A536A5E257FF4F40815181C5
:1022C000421753073CF0329681E04081518142171A
:1022D00053070CF480E008952F923F924F925F9243
:1022E0006F927F928F929F92AF92BF92CF92DF9226
:1022F000EF92FF920F931F93CF93DF93CDB7DEB78B
:1023000029970FB6F894DEBF0FBECDBF6B834C8309
:102310002D83FC01E55BFF4F40805180628073801C
:10232000389680809180A280B3803497C080D1801D
:10233000E280F380262E312C01E010E0A50194010B
:10234000C301B2010E949F2C181614F000E010E0A7
:1023500021E030E03A832983A7019601C301B2014D
:102360000E949F2C181614F01A82198249815A81F2
:10237000040F151F209EC001219E900D309E900DD0
:1023800011249A8389839C81292E312C01E010E04D
:10239000A3019201C501B4010E949F2C181614F0EC
:1023A00000E010E0E1E0F0E0FF83EE83A70196019A
:1023B000C501B4010E949F2C181614F01F821E82C2
:1023C0002E813F81020F131F209EA001219E500DE0
:1023D000309E500D1124598748879D81892F90E0A8
:1023E0009F838E8322242394312CA3019201C70161
:1023F000B6010E949F2C181614F0212C312C01E0FC
:1024000010E0A5019401C701B6010E949F2C181687
:1024100014F000E010E0020D131DEE81FF81E09F3B
:10242000C001E19F900DF09F900D1124FD81FF23CD
:1024300051F029813A81821793072CF048855985FC
:102440008417950734F55B81552351F0E981FA81B2
:1024500028853985E217F3071CF0E817F907E4F43B
:102460003C81332369F048855985E981FA814E170B
:102470005F0734F0481759071CF082E090E00EC067
:10248000FD81F11106C02B81211106C03C81311163
:10249000F4CF81E090E002C080E090E029960FB692
:1024A000F894DEBF0FBECDBFDF91CF911F910F918A
:1024B000FF90EF90DF90CF90BF90AF909F908F9064
:1024C0007F906F905F904F903F902F900895CF92A4
:1024D000DF92EF92FF920F931F93CF93DF938C01C4
:1024E000FC01E15AFF4FC080D180E280F38020E000
:1024F00030E0A901C701B6010E94502BE801C55A7E
:10250000DF4F87FF07C0F801838D948DA58DB68DB1
:10251000B0580EC020E030E0A901C701B6010E940A
:102520009F2C181654F4F801838D948DA58DB68DCB
:1025300088839983AA83BB8304C0188219821A8274
:102540001B82DF91CF911F910F91FF90EF90DF9051
:10255000CF9008950F931F93CF93DF938C01EC01DD
:10256000C55ADF4FFC01E75BFF4F61E070E08081FF
:102570009181681B790B882777FD8095982F0E94A1
:10258000EF2BF801278D30A141A152A10E94A32C6D
:10259000688379838A839B83DF91CF911F910F9109
:1025A00008952F923F924F925F926F927F928F92F7
:1025B0009F92AF92BF92CF92DF92EF92FF920F93D2
:1025C0001F93CF93DF93CDB7DEB72A970FB6F8945A
:1025D000DEBF0FBECDBF9A878987FC01E55AFF4F4A
:1025E00080809180A280B3803B9600811181D801C8
:1025F0004D905D906D907C90379620803180D10118
:102600002D913D914D915C9129833A834B835C835D
:10261000CA01B9010E94ED2B6D837E838F83988759
:10262000A3019201C501B4010E94EB2A2D813E81D4
:102630004F8158850E94542B6B017C01E985FA85F6
:102640002381348145815681C501B4010E94A32CA8
:102650004B015C01A985BA8517962D913D914D914D
:102660005C911A97C701B6010E94A32C9B01AC0193
:10267000C501B4010E94EC2A4B015C01F8012481E0
:10268000358146815781C301B2010E94EB2A2B019B
:102690003C01D10114966D917D918D919C9117977C
:1026A00029813A814B815C81621B730B840B950BF2
:1026B0000E94ED2B9B01AC01C301B2010E94542B7F
:1026C0009B01AC01C701B6010E94EB2A2D813E811E
:1026D0004F8158850E94542BA985BA851B962D9150
:1026E0003D914D915C911E970E94A32C9B01AC01E2
:1026F000C501B4010E94EC2A0E94BC2B7195619522
:102700007109E985FA85E95AFF4F71836083A985CC
:10271000BA85DF962D913C9137FF03C03195219505
:102720003109C901880F991F820F931F95958795CD
:102730008617970734F09195819591096817790765
:1027400014F4918380832A960FB6F894DEBF0FBEEF
:10275000CDBFDF91CF911F910F91FF90EF90DF9050
:10276000CF90BF90AF909F908F907F906F905F9031
:102770004F903F902F900895FC01E75BFF4F208121
:1027800031812130310571F01CF4232B59F00EC03A
:102790002230310521F02330310521F007C01182AC
:1027A000108204C022E030E031832083FC01EC5B26
:1027B000FF4F21E02083339622E030E031832083F5
:1027C0000895FC01108211820895EF92FF920F93F9
:1027D0001F93CF93DF9300D000D0CDB7DEB77C013D
:1027E000DC0115967C936E9314978B01085F1F4F45
:1027F00013961C930E931297000F111F000F111FB9
:10280000C80149835A836B837C830E94BD26F701EC
:10281000808391837801F0E2EF1AF10849815A81AF
:10282000E40EF51EFC014E155F0571F0DA010D9105
:102830001D912D913D91AD01309721F000831183C1
:10284000228333833496EFCF0F900F900F900F9029
:10285000DF91CF911F910F91FF90EF900895FC01B0
:10286000808191810C94BF26AF92BF92CF92DF926C
:10287000EF92FF920F931F93CF93DF93EC018B01A5
:102880006817790709F492C0DB0114962D913C91E9
:1028900015978A819B818217930748F5C880D98054
:1028A0003B832A83C901880F991F880F991F0E94B3
:1028B000BD2688839983EC80FD80FC01D60120E051
:1028C00030E02E153F0581F0309749F04D915D9134
:1028D0006D917C91139740835183628373832F5F43
:1028E0003F4F34961496EDCFC6010E94BF268C81CF
:1028F0009D81F801448155815A018417950708F498
:102900005C0120E030E060E070E06A157B05B1F02A
:10291000D801ED91FC91E20FF31FC080D180E280DD
:10292000F380E881F981E20FF31FC082D182E28255
:10293000F3826F5F7F4F2C5F3F4FE7CF8417950780
:1029400058F0F801848195812C813D81821793078D
:1029500068F59D838C832AC09C01220F331F220FB0
:10296000331FD80114964D915C91159784179507E4
:1029700040F7F801A081B181A20FB31FE881F9816E
:10298000E20FF31F309741F04D915D916D917C9175
:1029900040835183628373834C815D814F5F5F4FBE
:1029A0005D834C8301962C5F3F4FDBCFCE01DF91DF
:1029B000CF911F910F91FF90EF90DF90CF90BF903C
:1029C000AF900895EF92FF920F931F93CF93DF93F1
:1029D00000D000D0CDB7DEB77C01DC0115967C932A
:1029E0006E9314978B01085F1F4F13961C930E93E1
:1029F0001297000F111F000F111FC80149835A833E
:102A00006B837C830E94BD26F701808391837801CC
:102A1000F0E2EF1AF10849815A81E40EF51EFC013B
:102A20004E155F0571F0DA010D911D912D913D91CB
:102A3000AD01309721F000831183228333833496D4
:102A4000EFCF0F900F900F900F90DF91CF911F91CC
:102A50000F91FF90EF900895FC01808191810C947B
:102A6000BF26CF93DF93EC0185E792E099838883BB
:102A7000CE0183599F4F0E942F14CE018A599F4F38
:102A80000E942C15CE01DF91CF910C947A0BCF933D
:102A9000DF93EC010E943115CE01DF91CF910C94B0
:102AA000BF26AF92BF92CF92DF92EF92FF920F9329
:102AB0001F93CF93DF93EC018B016817790709F41B
:102AC00092C0DB0114962D913C9115978A819B81D0
:102AD0008217930748F5C880D9803B832A83C901B0
:102AE000880F991F880F991F0E94BD26888399839C
:102AF000EC80FD80FC01D60120E030E02E153F0582
:102B000081F0309749F04D915D916D917C911397D3
:102B100040835183628373832F5F3F4F34961496B3
:102B2000EDCFC6010E94BF268C819D81F8014481B2
:102B300055815A018417950708F45C0120E030E0C4
:102B400060E070E06A157B05B1F0D801ED91FC9171
:102B5000E20FF31FC080D180E280F380E881F98129
:102B6000E20FF31FC082D182E282F3826F5F7F4F58
:102B70002C5F3F4FE7CF8417950758F0F801848109
:102B800095812C813D818217930768F59D838C8305
:102B90002AC09C01220F331F220F331FD801149625
:102BA0004D915C9115978417950740F7F801A08126
:102BB000B181A20FB31FE881F981E20FF31F3097B3
:102BC00041F04D915D916D917C9140835183628381
:102BD00073834C815D814F5F5F4F5D834C830196B2
:102BE0002C5F3F4FDBCFCE01DF91CF911F910F9133
:102BF000FF90EF90DF90CF90BF90AF900895AF928D
:102C0000BF92CF92DF92EF92FF920F931F93CF93D9
:102C1000DF9300D000D0CDB7DEB75C018C010D5939
:102C20001F4F1A8219821C830B83CE0101960E94CA
:102C3000CA0BE82E21E030E03A832983CE010196C9
:102C40000E94CA0BD82E22E030E03A832983CE01BD
:102C500001960E94CA0BF82E23E030E03A832983C4
:102C6000CE0101960E94CA0B08501109DD2071F0B7
:102C7000FF2031F0F80110821182128213824BC0C2
:102C8000F50187859089A189B28940C0FF2031F084
:102C9000F50187859089A189B28927C0EE2041F08E
:102CA00081110EC0F50183899489A589B6892EC04A
:102CB000882331F0F50183899489A589B68915C0E7
:102CC000F501E15AFF4FC080D180E280F38020E01F
:102CD00030E0A901C701B6010E94502B87FF07C051
:102CE000F5018789908DA18DB28DB0580FC020E07D
:102CF00030E0A901C701B6010E949F2C18160CF004
:102D0000B9CFF5018789908DA18DB28DF8018083AF
:102D10009183A283B3830F900F900F900F90DF9158
:102D2000CF911F910F91FF90EF90DF90CF90BF90C8
:102D3000AF9008954F925F926F927F928F929F9281
:102D4000AF92BF92CF92DF92EF92FF920F931F93B9
:102D5000CF93DF93CDB7DEB760970FB6F894DEBFA1
:102D60000FBECDBF4C01FC01E95BFF4F808191811B
:102D70008230910531F0039741F4C4010E94AA12F8
:102D800007C0C4010E94671203C0C4010E94FF155E
:102D900074012BE5E20EF11CF401FF966081718154
:102DA00077FF03C0719561957109882777FD80953C
:102DB000982F0E94EF2BD7012D913D914D915C9161
:102DC0000E94A32CF7016083718382839383640143
:102DD000FFE5CF0ED11CD6014D905D906D907C909B
:102DE000A30192010E94502B840103591F4F882395
:102DF00009F456C049825A826B827C82B6E68B0EF9
:102E0000911CD401ED91FC9180819181A281B381CB
:102E10008D839E83AF83B887FE0131965F01AF013A
:102E200062E070E09E01205F3F4FCE0109960E9454
:102E3000E214BE01675F7F4FC4010E945115CE01AD
:102E400009960E942C1519821A821B821C82D801B5
:102E5000ED91FC9180819181A281B3818D839E83CC
:102E6000AF83B887A50162E070E09E01205F3F4F0D
:102E7000CE0109960E94E513BE01675F7F4FC8012E
:102E80000E943414CE0109960E942F14F70180810C
:102E90009181A281B381F60180839183A283B38360
:102EA000D801ED91FC91119714962D913C911597B5
:102EB000220F331F220F331F2E0F3F1FE217F3077E
:102EC00061F080819181A281B3810196A11DB11D24
:102ED00081939193A193B193F1CF60960FB6F8943B
:102EE000DEBF0FBECDBFDF91CF911F910F91FF903D
:102EF000EF90DF90CF90BF90AF909F908F907F909A
:102F00006F905F904F900895AF92BF92CF92DF92F3
:102F1000EF92FF920F931F93CF93DF9300D000D0D7
:102F2000CDB7DEB78C01FC01E95BFF4F40815181D9
:102F3000E7E8EE2EE2E0FE2ED7012D913D917D01D6
:102F4000DC01A458BF4F4217530719F01D921C9281
:102F50000DC02D913C911197F80161A972A9261716
:102F6000370724F42F5F3F4F2D933C930296FFE8E1
:102F7000EF16F2E0FF0601F76801E12CF12C580191
:102F800023E6A20EB11CBC82AB82FA82E982CE019A
:102F900001960E94CA0BF601E457FF4FD601AC57C9
:102FA000BF4F882379F0118210828D919C911197E7
:102FB000F80121A932A9821793079CF401968D93F9
:102FC0009C930FC01D921C9280819181D801D19653
:102FD0002D913C91D297821793071CF4019691830F
:102FE0008083BFEFEB1AFB0AE2E0CE0ED11CF4E0C7
:102FF000EF16F10441F60F900F900F900F90DF91B4
:10300000CF911F910F91FF90EF90DF90CF90BF90E5
:10301000AF900895CF92DF92EF92FF920F931F939C
:10302000CF93DF9300D000D0CDB7DEB78C0186E11F
:1030300096E00E945727780187E4E80EF11CF7011B
:10304000808191818130910589F02CF4892B89F45C
:1030500062ED70E010C08230910529F0039749F4C9
:1030600065ED70E008C068ED70E005C06FEC70E0E1
:1030700002C06CEC70E086E196E00E949824F801B2
:10308000ED5BFF4F8081882369F06AEC70E086E198
:1030900096E00E949824E12CF12C6801F3E6CF0E13
:1030A000D11C32C0F70180819181F8010397D9F4D6
:1030B000E75BFF4F808191818130910571F02CF4A5
:1030C000892B49F768EC70E0E2CF8230910541F03E
:1030D000039709F762EC70E0DACF66EC70E0D7CFC7
:1030E00064EC70E0D4CFE95AFF4F8081918197FF63
:1030F00003C060EC70E0CBCF892B19F06EEB70E071
:10310000C6CF6CEB70E0C3CF6AEB70E086E196E06F
:103110000E949824DC82CB82FA82E982CE01019659
:103120000E94CA0B682F70E04AE050E086E196E00A
:103130000E946925FFEFEF1AFF0A84E0E816F10408
:1031400019F768EB70E086E196E00E9498240E94EF
:10315000551E4AE050E0BC0186E196E00E946925D8
:1031600041E060E086E196E00E945E27F80143813D
:1031700054816581768122E030E086E196E00E940C
:103180005C2666EB70E086E196E00E949824F801E8
:10319000478150856185728522E030E086E196E0C6
:1031A0000E945C2664EB70E086E196E00E94982421
:1031B000F801E95AFF4F608171814AE050E086E1F1
:1031C00096E00E9469250F900F900F900F90DF916D
:1031D000CF911F910F91FF90EF90DF90CF900895C6
:1031E000FB01A3E0F695E795AA95E1F767707727CD
:1031F000E80FF91F4130510569F42081332727FD7D
:103200003095DA0102C0AA0FBB1F6A95E2F72A2B9C
:103210003B2B0FC021E030E002C0220F331F6A9524
:10322000E2F7209530954081552747FD509524239E
:103230003523208308951F93CF93DF93EC010E94E1
:103240005911811115C08DA19EA141E0FE01EC57DD
:10325000FF4F20813181281739070CF440E0FE012F
:10326000E657FF4F208131812817390724F401C028
:1032700040E010E001C011E0442349F041E050E09B
:1032800060E070E0CE018C599F4F0E94F01811232E
:1032900061F041E050E061E070E0CE018C599F4F59
:1032A000DF91CF911F910C94F018DF91CF911F9176
:1032B00008958F929F92AF92BF92CF92DF92EF923A
:1032C000FF920F931F93CF93DF9300D000D0CDB721
:1032D000DEB78C010E941B19E12CF12C580183E60A
:1032E000A80EB11C4801E4E68E0E911C6801F5E6BB
:1032F000CF0ED11CBC82AB82FA82E982CE0101964C
:103300000E94CA0B81110DC0F4014081552747FD71
:1033100050950E2C02C0559547950A94E2F74170DE
:1033200001C040E050E0B701C6010E94F018FFEF75
:10333000EF1AFF0A82E0E816F104E1F6F80181A530
:1033400092A5E457FF4F2081318128173907CCF12E
:10335000369620813181281739079CF1C8010E94D7
:103360005911F601608121E0282761FB442740F9CB
:1033700041706170C8010E946C11F801E75BFF4F5A
:1033800091838083019729F083E090E032979183C5
:103390008083C8018C599F4F0E94E113C6010F9092
:1033A0000F900F900F90DF91CF911F910F91FF9091
:1033B000EF90DF90CF90BF90AF909F908F900C9444
:1033C000E1130F900F900F900F90DF91CF911F910D
:1033D0000F91FF90EF90DF90CF90BF90AF909F90B4
:1033E0008F900895CF92DF92EF92FF920F931F93E9
:1033F000CF93DF93EC01FC01E458FF4FC080D180F4
:103400003296E080F1808C01095B1F4FF8018081CA
:1034100091818130910529F11CF4892B49F09FC0DD
:103420008230910509F444C0039709F452C097C053
:10343000CE010E944111882319F082E090E036C04D
:103440008BA19CA1C816D9060CF489C0CE01DF91CE
:10345000CF911F910F91FF90EF90DF90CF900C9440
:103460005919CE010E9441118111E7CFFE01EC5B99
:10347000FF4F8081882309F472C08BA59CA5E816B4
:10348000F9060CF46CC0DE01DF9689AD9AAD119699
:103490009C938E9312968DA99EA98D939C931082D6
:1034A000CD5BDF4F81E0888383E090E0F80155C079
:1034B000CE010E944111811152C0CC5BDF4F888147
:1034C000811104C0F8011182108249C081E090E0AE
:1034D000EDCFFE01EB5BFF4F8081811114C08FA106
:1034E00098A5DE01A257BF4F2D913C9128173907AF
:1034F000B4F1C057DF4F28813981281739077CF193
:1035000081E080832CC08FA598A9DE01AA57BF4F08
:103510002D913C9111972817390734F412962D916B
:103520003C9128173907DCF0DE01AC5BBF4F1C92E1
:103530001082F80111821082FE01ED5BFF4F1082B4
:10354000369681E090E09183808338978BA99CA97F
:1035500091838083329789AD9AAD91838083DF9187
:10356000CF911F910F91FF90EF90DF90CF90089532
:103570008F929F92AF92BF92CF92DF92EF92FF9283
:103580000F931F93CF93DF93EC018C010A5B1F4FC6
:10359000F8018081811146C086E090E00E94272AD0
:1035A000BC01882777FD8095982F0E94EF2B20E0A3
:1035B00030E048E452E40E94542B6B837C838D837B
:1035C0009E8387E090E00E94272ABC01882777FD30
:1035D0008095982F0E94EF2B20E030E048E452E4E1
:1035E0000E94542B6B017C016F83788789879A87AF
:1035F00020E030E040E05FE30E94A32CA7019601A9
:103600000E94A32C2B813C814D815E810E94542B12
:1036100026E636E646E65FE30E94A32C6B877C87AE
:103620008D879E875E01E12CF12CCE018D599F4F35
:103630006C0188248394912CF501EC58FF4F808114
:103640000E945020892B79F0C4010E2C02C0880FF3
:10365000991F0A94E2F7F6012081332727FD309560
:10366000822B932B10C0C4010E2C02C0880F991F0F
:103670000A94E2F780959095F6012081332727FD83
:103680003095822393238083FFEFEF1AFF0A82E0B5
:10369000A80EB11C94E0E916F10471F6CE010E9467
:1036A0008417CE010E94F219FE01E95BFF4F808171
:1036B000918181309105A9F044F4892BE1F4FE0158
:1036C000FF96808191817A9614C08230910561F0D5
:1036D000039789F4FE01EF5BFF4F8081918178961B
:1036E00008C08DAD9EAD02C08FA998ADFE01E75A0E
:1036F000FF4F91838083CE010E949A16CE010E94D3
:10370000D112F80180818823D1F08E01095A1F4F10
:10371000C75ADF4FF8014081518188819981481B48
:10372000590B60E070E084E196E00E94EF29F80117
:103730004081518188819981480F591F0AC040E01A
:1037400050E060E070E084E196E00E94EF2940E004
:1037500050E063E070E084E196E0DF91CF911F914B
:103760000F91FF90EF90DF90CF90BF90AF909F9020
:103770008F900C94EF29EF92FF920F931F93CF93AA
:10378000DF93CDB7DEB728970FB6F894DEBF0FBE34
:10379000CDBF8C010E94770BF801ED5BFF4F1082CB
:1037A00031961082319610823196108231961182B4
:1037B0001082329681E090E0918380833E96118260
:1037C00010827897D801D9968D919C91DA97918340
:1037D00080833296D3968D919C91D49791838083E8
:1037E0007896118210823296108211821282138290
:1037F00034961082118212821382C8018C599F4F15
:103800000E94E113C8018B599F4F0E94E113F801F8
:10381000ED59FF4F1082118249E652E062E070E0FC
:103820009E01285F3F4FCE0101960E94E513BE0125
:103830006F5F7F4FC80183599F4F0E943414CE01A0
:1038400001960E942F1441E652E062E070E09E0172
:10385000285F3F4FCE0101960E94E214BE016F5FC8
:103860007F4FC8018A599F4F0E945115CE01019682
:103870000E942C15C801E0910A01F0910B0124E08F
:1038800030E0DC01AC57BF4F11961C921E92189687
:1038900011961C921E924191519158974D935C93B1
:1038A0002150310902962115310559F7F801E458E4
:1038B000FF4F11821082329611821082329611824D
:1038C0001082329611821082F79710821182128232
:1038D00013823896108211821282138234971082DA
:1038E000118212821382E12CF12CF801EE0DFF1DE2
:1038F000EC58FF4F60E080810E94E11FB2E0EB0EC8
:10390000F11C88E0E816F10481F728960FB6F894C8
:10391000DEBF0FBECDBFDF91CF911F910F91FF9002
:10392000EF900895EF92FF920F931F93CF93DF9341
:10393000EC010E94A70B85E792E09983888384EAD3
:1039400090E7ADE1B1E48B839C83AD83BE8381EED0
:103950009AE7ACE3B1E48F839887A987BA8780E6BA
:1039600093E1ABECB0E48B879C87AD87BE878AE0A0
:1039700097EDA3EABCE38F87988BA98BBA8B8AE07B
:1039800097EDA3E2BDE38B8B9C8BAD8BBE8B8AE066
:1039900097EDA3EABDE38F8B988FA98FBA8F4AE08A
:1039A00057ED63E27FE34B8F5C8F6D8F7E8F4DEC25
:1039B0005CEC6CE471E44F8F58A369A37AA384E6AE
:1039C00090E09CA38BA38FE090E09EA38DA38AE060
:1039D00090E098A78FA38BE490E09AA789A781E94C
:1039E00090E09CA78BA782E390E09EA78DA785E03F
:1039F00090E098AB8FA780E091E09AAB89AB80E232
:103A000090E09CAB8BAB28EF3FEF3EAB2DAB98AF7C
:103A10008FAB24E530E03AAF29AF40E450E05CAF33
:103A20004BAF40EC5FEF5EAF4DAFFE01FF963183D1
:103A30002083329691838083B29610821182CE01C8
:103A40008C599F4F0E94E113CE018B599F4F0E94CA
:103A5000E1138E010A591F4FF8011182108288E08C
:103A6000E82EF12CF382E2821582148280E290E04B
:103A70000E94BD26F80191838083095F1F4FF801E2
:103A800011821082F382E2821582148280E290E039
:103A90000E94BD26F80191838083CE01DF91CF91F2
:103AA0001F910F91FF90EF900C94BB1BCF93DF936E
:103AB000EC010E94800BCA5BDF4F81E08883DF91BD
:103AC000CF910895CF93DF93EC010E94960B40E0D5
:103AD00050E060E070E084E196E00E94EF2940E071
:103AE00050E063E070E084E196E00E94EF29CA5B59
:103AF000DF4F1882DF91CF910895CF93DF93EC01D0
:103B00000E94990BE881F9810284F385E02DCE01B2
:103B1000DF91CF91099460E070E080E090E00E9436
:103B2000452A60E070E081E090E00E94452A20E0B4
:103B300042E060E186E196E00E94782763E270E06F
:103B400083E196E00E94FC286FE170E082E196E05C
:103B50000E94FC2862E270E081E196E00E94FC286D
:103B600082E196E00E94472981E196E00E94472980
:103B700040E855E260E070E080EC94E00E94392378
:103B800080E00E94441F0E945E2686E196E00E942B
:103B9000572763E271E086E196E00E94982441E0B5
:103BA00060E086E196E00E945E2762E171E086E1D6
:103BB00096E00E94982464EF71E080E090E00E941B
:103BC000EA1E86E196E00E94572761E071E086E1F7
:103BD00096E00E94982441E060E086E196E00E9431
:103BE0005E2760EF70E086E196E00E94982464EF23
:103BF00071E080E090E00E94EA1E86E196E00E947B
:103C0000572761EE70E086E196E00E94982441E03B
:103C100060E086E196E00E945E276BED70E086E151
:103C200096E00C94982481E08093940484EE92E0D2
:103C30000E94E71086E196E00C94572710929404B6
:103C400084EE92E00E94F81086E196E00C945727EB
:103C50000E942F2A892B21F0809194048823A1F0BF
:103C60000E943A2A892B99F080919404882379F054
:103C70000E941E1E84EE92E00E948510882361F04F
:103C800084EE92E00C948A100E94131EF3CF0E94DF
:103C90003A2A892B79F3ECCF089584EE92E00C94C4
:103CA0009A0E84EE92E00C940911CF93DF9300D02A
:103CB000CDB7DEB720912E0630912F0621153105A4
:103CC00011F422E336E0CE010196821B930B0F9094
:103CD0000F90DF91CF9108950C948B1D0C94281EAA
:103CE0001F920F920FB60F9211242F933F938F9331
:103CF0009F93AF93BF938091960490919704A09166
:103D00009804B09199043091950423E0230F2D3746
:103D100020F40196A11DB11D05C026E8230F0296CF
:103D2000A11DB11D20939504809396049093970450
:103D3000A0939804B093990480919A0490919B0465
:103D4000A0919C04B0919D040196A11DB11D80938A
:103D50009A0490939B04A0939C04B0939D04BF91FC
:103D6000AF919F918F913F912F910F900FBE0F9028
:103D70001F9018952FB7F89460919604709197044E
:103D800080919804909199042FBF08953FB7F894BB
:103D900080919A0490919B04A0919C04B0919D0401
:103DA00022B706B600FE05C02F3F19F00196A11DEF
:103DB000B11D3FBF6627782F892F9A2F620F711D83
:103DC000811D911D42E0660F771F881F991F4A953C
:103DD000D1F70895CF92DF92EF92FF92CF93DF93C6
:103DE0006B017C010E94C61EEB01C114D104E104E9
:103DF000F10479F00E94C61E6C1B7D0B683E734077
:103E0000A0F381E0C81AD108E108F108C851DC4FDD
:103E1000ECCFDF91CF91FF90EF90DF90CF9008959E
:103E2000019739F0880F991F880F991F0297019702
:103E3000F1F70895789483B7846083BF87B7816072
:103E400087BF1EBC8EB582608EBD8EB581608EBD73
:103E50008FB581608FBD85B5846085BD85B5806473
:103E600085BDEAE8F0E080818260808380818160A6
:103E70008083EBE8F0E0808181608083329A319A20
:103E8000309A379A1AB808958B3208F08B5287709F
:103E900020910C0190E4299F90011124822B87B975
:103EA000369A3699FECF84B125B190E0922B0895D1
:103EB0001F93CF93DF93182FEB0161E00E94E11F66
:103EC000209711F460E004C0CF3FD10539F461E0E0
:103ED000812FDF91CF911F910C941A20E12FF0E0F8
:103EE000EC5CFE4F449150E0FA013197EA30F10565
:103EF000C0F5EA5BFF4F0C946F2D83B7806183BFE1
:103F0000C1BF34C08FB580688FBDDBBDCABD2EC0B8
:103F10008FB580628FBDD9BDC8BD28C085B5806210
:103F200085BDC3BD23C080918B00806880938B00CA
:103F3000D0938700C093860019C080918B00806267
:103F400080938B00D0938500C09384000FC0809134
:103F50008B00886080938B00D0938300C093820095
:103F600005C0C038D1050CF0B2CFACCFDF91CF91F6
:103F70001F91089590E0FC013197EA30F10500F5BA
:103F8000E05BFF4F0C946F2D8FB58F7702C08FB51C
:103F90008F7D8FBD089585B58F7D85BD089583B7CD
:103FA0008F7D83BF089580918B008F7707C08091AC
:103FB0008B008F7D03C080918B00877F80938B0067
:103FC0000895CF93DF9390E0FC01E759FE4F2491D1
:103FD000FC01E256FE4F8491882349F190E0880F5E
:103FE000991FFC01ED50FE4FA591B4918D519E4F4C
:103FF000FC01C591D4919FB7611108C0F8948C91D0
:10400000209582238C93888182230AC0623051F4E8
:10401000F8948C91322F309583238C938881822B56
:10402000888304C0F8948C91822B8C939FBFDF917E
:10403000CF9108950F931F93CF93DF931F92CDB726
:10404000DEB7282F30E0F901EC5CFE4F8491F901D6
:10405000E759FE4F1491F901E256FE4F04910023F7
:10406000C9F0882321F069830E94BA1F6981E02F7B
:10407000F0E0EE0FFF1FED51FE4FA591B4919FB7F9
:10408000F8948C91611103C01095812301C0812B9C
:104090008C939FBF0F90DF91CF911F910F91089547
:1040A000CF93DF93282F30E0F901EC5CFE4F849131
:1040B000F901E759FE4FD491F901E256FE4FC49140
:1040C000CC2391F081110E94BA1FEC2FF0E0EE0F8B
:1040D000FF1FED52FE4FA591B4912C912D2381E04D
:1040E00090E021F480E002C080E090E0DF91CF9189
:1040F0000895CF93DF938230910510F482E090E031
:10410000E0913006F091310620E030E0A0E0B0E030
:10411000309739F14081518148175907B8F0481755
:10412000590771F482819381109729F013969C931B
:104130008E9312972CC0909331068093300627C03F
:104140002115310531F04217530718F0A901DB01A1
:1041500001C0EF019A01BD01DF010280F381E02D72
:10416000D7CF21153105F9F0281B390B2430310543
:1041700080F48A819B816115710521F0FB01938395
:10418000828304C09093310680933006FE013296FC
:1041900044C0FE01E20FF31F819391932250310935
:1041A000398328833AC020912E0630912F06232B85
:1041B00041F420910F013091100130932F0620938C
:1041C0002E0620910D0130910E012115310541F48B
:1041D0002DB73EB74091110150911201241B350BB0
:1041E000E0912E06F0912F06E217F307A0F42E1BA4
:1041F0003F0B2817390778F0AC014E5F5F4F24174B
:10420000350748F04E0F5F1F50932F0640932E0640
:104210008193919302C0E0E0F0E0CF01DF91CF9174
:104220000895CF93DF93009709F487C0FC0132977C
:1042300013821282C0913006D0913106209781F40A
:1042400020813181280F391F80912E0690912F06F1
:104250008217930779F5F0932F06E0932E066DC031
:10426000DE0120E030E0AE17BF0750F412964D910A
:104270005C9113979D014115510509F1DA01F3CFC6
:10428000B383A28340815181840F951F8A179B07B6
:1042900071F48D919C911197840F951F02969183D3
:1042A000808312968D919C9113979383828321151D
:1042B000310529F4F0933106E09330063EC0D90170
:1042C0001396FC93EE9312974D915D91A40FB51F39
:1042D000EA17FB0779F480819181840F951F02967C
:1042E000D90111969C938E938281938113969C930E
:1042F0008E931297E0E0F0E08A819B81009719F09D
:10430000FE01EC01F9CFCE01029628813981820F9E
:10431000931F20912E0630912F062817390769F434
:10432000309729F4109231061092300602C01382A1
:104330001282D0932F06C0932E06DF91CF9108955D
:10434000FC0124853585F901E05CFF4F8081918176
:10435000329620813181805C9F4F821B930B60E4F9
:1043600070E00E941A2D0895FC0184859585FC015A
:10437000E05CFF4F408151813296208131814217AC
:10438000530741F00190F081E02DE80FF91F808183
:1043900090E008958FEF9FEF0895FC018485958547
:1043A000FC01E05CFF4F40815181329620813181D8
:1043B0004217530779F0A081B181A80FB91F8C91E2
:1043C000208131812F5F3F4F2F733327318320832B
:1043D00090E008958FEF9FEF0895FC0181A188235D
:1043E00029F0A489B5898C9186FFFBCF11A208958D
:1043F000CF93DF93FC0126853785D901A05CBF4FA1
:104400008D919C91119701968F739927E901CE5B4D
:10441000DF4F4881598184179507D9F30D90BC91DE
:10442000A02DA20FB31F6C93A685B785A05CBF4FCC
:1044300011969C938E93A689B7892C9181E090E088
:10444000078C02C0880F991F0A94E2F7282B2C933F
:1044500081E081A30488F589E02D808180648083D8
:1044600081E090E0DF91CF91089508951F920F921F
:104470000FB60F9211240BB60F922F933F934F93C9
:104480008F939F93EF93FF935A991BC04CB18091E8
:10449000EE059091EF0501968F7399272091F00515
:1044A0003091F1058217930769F0E091EE05F091E4
:1044B000EF05E255FA4F40839093EF058093EE05A8
:1044C00001C08CB1FF91EF919F918F914F913F91DE
:1044D0002F910F900BBE0F900FBE0F901F9018954D
:1044E00008951F920F920FB60F9211240BB60F92E0
:1044F0002F933F934F938F939F93EF93FF938091CD
:104500009B0082FD1CC040919C00809166059091AB
:10451000670501968F739927209168053091690589
:104520008217930771F0E0916605F0916705EA5DE7
:10453000FA4F4083909367058093660502C080918F
:104540009C00FF91EF919F918F914F913F912F91FF
:104550000F900BBE0F900FBE0F901F90189580EC20
:1045600094E00E94A021892B11F00E9435228EE94F
:1045700094E00E94A021892B11F00C9470220895E0
:104580001F920F920FB60F9211240BB60F922F931A
:104590003F938F939F93EF93FF932091AA053091C0
:1045A000AB058091AC059091AD052817390711F442
:1045B000559813C0E091AC05F091AD05E659FA4F5E
:1045C00020818091AC059091AD0501968F7399275C
:1045D0009093AD058093AC052CB9FF91EF919F911D
:1045E0008F913F912F910F900BBE0F900FBE0F90A8
:1045F0001F9018951F920F920FB60F9211240BB6B1
:104600000F922F933F938F939F93EF93FF9320915C
:1046100022053091230580912405909125052817C6
:10462000390731F480919A008F7D80939A0014C0ED
:10463000E0912405F0912505EE51FB4F20818091FA
:1046400024059091250501968F7399279093250550
:104650008093240520939C00FF91EF919F918F916F
:104660003F912F910F900BBE0F900FBE0F901F9098
:104670001895CF92DF92EF92FF92CF93DF93EC01E8
:104680006A017B01411581EE580761057105F9F05A
:10469000EC89FD8981E090E008A002C0880F991F95
:1046A0000A94E2F7808360E079E08DE390E0A7016F
:1046B00096010E942E2D215031094109510956952C
:1046C000479537952795211580E1380798F0EC89B3
:1046D000FD89108260E874E88EE190E0A701960100
:1046E0000E942E2D215031094109510956954795B7
:1046F00037952795E889F9893083EA89FB892083F2
:1047000019A2EE89FF89408181E090E09C010C8C28
:1047100002C0220F331F0A94E2F7422B4083EE8936
:10472000FF8940819C010D8C02C0220F331F0A9427
:10473000E2F7422B4083EE89FF8940819C010E8C79
:1047400002C0220F331F0A94E2F7422B4083EE8906
:10475000FF8920810F8C02C0880F991F0A94E2F70D
:10476000809582238083DF91CF91FF90EF90DF903F
:10477000CF9008951092C3041092C20488EE93E083
:10478000A0E0B0E08093C4049093C504A093C60455
:10479000B093C70423E932E03093C1042093C004EE
:1047A0004EEA55E05093CD044093CC044AE655E0E0
:1047B0005093CF044093CE0440E950E05093D1048D
:1047C0004093D00449E250E05093D3044093D20484
:1047D0004BE250E05093D5044093D4044AE250E0B9
:1047E0005093D7044093D60445E950E05093D90440
:1047F0004093D8044CE250E05093DB044093DA0439
:10480000E4E0E093DC0473E07093DD0467E0609320
:10481000DE0455E05093DF0441E04093E004109241
:10482000A1041092A0048093A2049093A304A093E7
:10483000A404B093A50430939F0420939E0486E2C1
:1048400095E09093AB048093AA0482EE94E0909359
:10485000AD048093AC0488E990E09093AF0480931A
:10486000AE0489E990E09093B1048093B0048BE9A1
:1048700090E09093B3048093B2048AE990E090931F
:10488000B5048093B4048DE990E09093B7048093CD
:10489000B6048CE990E09093B9048093B804E09357
:1048A000BA047093BB046093BC045093BD0440935E
:1048B000BE040895CF92DF92EF92FF920F931F9361
:1048C000CF93DF936C017A01EB01E60EF71E00E057
:1048D00010E0CE15DF0561F06991D601ED91FC91F4
:1048E0000190F081E02DC6010995080F191FF1CF45
:1048F000C801DF91CF911F910F91FF90EF90DF9052
:10490000CF9008956115710581F0DB010D900020B5
:10491000E9F7AD0141505109461B570BDC01ED9100
:10492000FC910280F381E02D099480E090E00895ED
:10493000EF92FF920F931F93CF93DF938C01FB01B4
:10494000C0E0D0E064917F018FEFE81AF80A662397
:1049500061F0D801ED91FC910190F081E02DC8014A
:104960000995C80FD91FF701EDCFCE01DF91CF9187
:104970001F910F91FF90EF9008950C948224DC0119
:10498000ED91FC910190F081E02D09948F929F921E
:10499000AF92BF92CF92DF92EF92FF920F931F934D
:1049A000CF93DF93CDB7DEB7A1970FB6F894DEBFF4
:1049B0000FBECDBF7C01C42EE52FCB01D22E19A294
:1049C00021E02D1510F02AE0D22E8E010F5D1F4F31
:1049D0008D2C912CA12CB12C6C2D7E2FA501940136
:1049E0000E942E2D8C2DD29E801911240150110968
:1049F0008A3014F4805D01C0895CF8018083211540
:104A000031054105510521F0C22EE32FCA01E4CF43
:104A1000B801C7010E948224A1960FB6F894DEBFA8
:104A20000FBECDBFDF91CF911F910F91FF90EF90FF
:104A3000DF90CF90BF90AF909F908F900895CF92CE
:104A4000DF92EF92FF920F931F93CF93DF93EC01CE
:104A50006A017B012115310579F4E881F981019022
:104A6000F081E02D642FDF91CF911F910F91FF9086
:104A7000EF90DF90CF9009942A303105E9F477FF69
:104A80001AC06DE20E94BF248C0144275527BA0149
:104A90004C195D096E097F092AE0CE010E94C624E7
:104AA000800F911FDF91CF911F910F91FF90EF9099
:104AB000DF90CF9008952AE0B701A601CE01DF91E3
:104AC000CF911F910F91FF90EF90DF90CF900C94BA
:104AD000C6249A01AB01662757FD6095762F0C948A
:104AE0001F254F925F926F927F928F929F92AF920B
:104AF000BF92CF92DF92EF92FF920F931F93CF93CB
:104B0000DF93EC016A017B01B22E9A01AB01C70170
:104B1000B6010E94062D882319F06FE972E027C0C4
:104B200026013701E89477F82FEF3FEF4FE75FE773
:104B3000C301B2010E94062D81110DC02FEF3FEF7E
:104B40004FE75FE7C301B2010E94502B18161CF417
:104B500063EA72E00CC02FEF3FEF4FE75FE4C7015D
:104B6000B6010E949F2C1816ACF467EA72E0CE01E1
:104B7000DF91CF911F910F91FF90EF90DF90CF9039
:104B8000BF90AF909F908F907F906F905F904F906D
:104B90000C9482242FEF3FEF4FE75FECC701B60183
:104BA0000E94502B87FDE1CF20E030E0A901C70132
:104BB000B6010E94502B87FF0AC06DE2CE010E9411
:104BC000BF248C01F7FAF094F7F8F09402C000E0EB
:104BD00010E0A12C60E070E080E09FE3AB1441F0B6
:104BE00020E030E040E251E40E94542BA394F6CF41
:104BF0009B01AC01C701B6010E94EC2A6B017C014C
:104C00000E94C12B2B013C010E94ED2B9B01AC01AA
:104C1000C701B6010E94EB2A6B017C012AE0B301B7
:104C2000A201CE010E94C624080F191FBB2039F033
:104C30006BEA72E0CE010E948224080F191F7B2CC0
:104C4000772041F120E030E040E251E4C701B601B5
:104C50000E94A32C6B017C010E94BC2B4B01AA2457
:104C600097FCA094BA2C2AE030E0B501A401CE0153
:104C70000E941F25080F191FC501B4010E94EF2BC8
:104C80009B01AC01C701B6010E94EB2A6B017C01BC
:104C90007A94D6CFC801DF91CF911F910F91FF90E9
:104CA000EF90DF90CF90BF90AF909F908F907F90CC
:104CB0006F905F904F9008950C947125009729F0A4
:104CC000BC0180E090E00C94DF2A08954F925F923F
:104CD0006F927F92AF92BF92CF92DF92EF92FF924C
:104CE0000F931F93CF93DF93CDB7DEB729013A011E
:104CF000621B730B840B950B29893A894B895C895C
:104D00002A193B094C095D09298B3A8B4B8B5C8B2B
:104D10009B01AC0169897A898B899C890E940A2D43
:104D2000E418F50806091709A80197010E94502DFB
:104D30002A0D3B1D4C1D5D1DCA01B901DF91CF91AC
:104D40001F910F91FF90EF90DF90CF90BF90AF90A9
:104D50007F906F905F904F90089508950E941A1F62
:104D60000E94AD260E946C1ECFEAD2E20E946E1E07
:104D70002097E1F30E94AF22F9CF0C9479200C9494
:104D800011210895CF93DF93EC0160E08E810E94A2
:104D90001A2081E090E00E94101F61E08E810E9445
:104DA0001A2081E090E00E94101F60E08E810E9436
:104DB0001A2084E690E0DF91CF910C94101FEF92BF
:104DC000FF920F931F93CF93DF938C01C0E0D0E04D
:104DD000E62EF12CB7010C2E02C0759567950A944A
:104DE000E2F76170F801EC0FFD1F87810E941A2025
:104DF0002196C430D10571F7C801DF91CF911F9181
:104E00000F91FF90EF900C94C226EF92FF920F93B8
:104E10001F93CF93DF938C01C0E0D0E0E62EF12CFE
:104E2000B7010C2E02C0759567950A94E2F7617080
:104E3000F801EC0FFD1F87810E941A202196C830CF
:104E4000D10571F7C801DF91CF911F910F91FF90AC
:104E5000EF900C94C2261F93CF93DF93EC01162F93
:104E6000642F8C810E941A208D818F3F19F060E0A1
:104E70000E941A208F85612F84FF06C0CE01DF912A
:104E8000CF911F910C94052770E084E0759567958C
:104E90008A95E1F7CE010E94DF26612FCE01DF91D6
:104EA000CF911F910C94DF2640E00C942B2761E0FA
:104EB0000E94542780ED97E00C94101F443008F0B6
:104EC00043E0FC012389421710F04FEF420FFC0131
:104ED000E40FF11D2489260F2068622F0C945427BB
:104EE000FC016089262F2460208B6C600C94542771
:104EF0000F931F93CF93DF93EC01423018F08F850F
:104F000088608F874B8B1C8A80E48D8B6E8B70E062
:104F1000605C7F4F6F8B222329F0413019F48F851D
:104F200084608F8761E08C810E94E11F8D818F3FBB
:104F300019F061E00E94E11F61E08E810E94E11F93
:104F400000E010E08F8584FF03C088E090E002C09D
:104F500084E090E00817190754F4FE01E00FF11FF8
:104F600061E087810E94E11F0F5F1F4FEBCF80E55B
:104F700093EC0E94101F60E08C810E941A2060E078
:104F80008E810E941A208D818F3F19F060E00E946F
:104F90001A206F8564FD1DC063E0CE010E94DF26EC
:104FA00084E991E10E94101F63E0CE010E94DF2698
:104FB00084E991E10E94101F63E0CE010E94DF2688
:104FC00086E990E00E94101F62E0CE010E94DF2679
:104FD00016C06062CE010E94542784E991E10E94CC
:104FE000101F6F856062CE010E94542786E990E011
:104FF0000E94101F6F856062CE010E9454276F854A
:105000006062CE010E94542784E0888BCE010E940A
:105010007027CE010E94572782E0898B66E0CE017F
:10502000DF91CF911F910F910C9454278F92AF92E3
:10503000CF92EF920F93CF93DF93CDB7DEB7FC0102
:105040007A855B853C851382128281EB92E09183A5
:1050500080836483458326830783E086C186A28696
:10506000838674875587368780E1878720E041E013
:1050700060E1CF01DF91CF910F91EF90CF90AF9092
:105080008F900C94782741E00E942B2781E090E0DC
:1050900008951F920F920FB60F9211240BB60F9224
:1050A0002F933F934F935F936F937F938F939F9330
:1050B000AF93BF93EF93FF938091F4058F5F80933D
:1050C000F4052091F4058091F50590E0FC01EE0FC8
:1050D000FF1FE80FF91FEA50FA4F818128130DC016
:1050E0008091F50590E0FC01EE0FFF1FE80FF91F1E
:1050F000EA50FA4F828184BD5FC02091F40580910F
:10510000F50590E0FC01EE0FFF1FE80FF91FEA50D4
:10511000FA4F8181821708F04FC08091F50590E029
:10512000FC01EE0FFF1FE80FF91FEA50FA4F8081D4
:1051300086FF0FC08091F50590E0FC01EE0FFF1F88
:10514000E80FF91FEA50FA4F808160E08F730E94E8
:105150001A208091F5058F5F8093F5051092F40574
:1051600014BC8091F505882309F18091F5058930FB
:10517000E8F48091F50590E0FC01EE0FFF1FE80FC9
:10518000F91FEA50FA4F808186FF16C08091F5051D
:1051900090E0FC01EE0FFF1FE80FF91FEA50FA4FF5
:1051A000808161E08F730E941A2006C08091F5050E
:1051B000893010F01092F505FF91EF91BF91AF91FA
:1051C0009F918F917F916F915F914F913F912F911F
:1051D0000F900BBE0F900FBE0F901F90189520914F
:1051E000F305283030F42F5F2093F305FC01208372
:1051F0000895FC01108208951F93CF93DF93EC0173
:10520000162F8091F205811127C0EBEFF5E095E0B4
:1052100083E3DF0111979C938083339626E0E3318B
:10522000F207B9F78FE18093F7051092F505109218
:10523000F40597B717BE25B52B7F25BD25B5226090
:1052400025BD25B52E7F25BD14BC80E486BF9064A6
:1052500097BF81E08093F2058881882399F061E00F
:10526000812F0E94E11F288130E0F901EE0FFF1F1E
:10527000E20FF31FEA50FA4F1F739081907C912B3D
:10528000906490838881DF91CF911F910895FC01F4
:10529000808190E0FC01EE0FFF1FE80FF91FEA503C
:1052A000FA4F80818F7B80830895FC0180819FEF7E
:1052B000980F983000F56039F1E07F073CF06D3DC4
:1052C00095E079072CF06CED75E002C060E971E0C3
:1052D0006850710990E09B01220F232F221F330B8E
:1052E000FC01EE0FFF1FE80FF91FEA50FA4F218370
:1052F000660F609562830895AF92BF92CF92DF925E
:10530000EF92FF920F931F93CF93DF93EC018827C7
:1053100077FD8095982F1F921F9225E02F9326E40A
:105320002F93E2ECAE2EBB24B394C12CD12C14EB02
:10533000E12EF12C00E010E020E030E0A9010E9415
:1053400066260F900F900F900F90CE01DF91CF91B6
:105350001F910F91FF90EF90DF90CF90BF90AF9093
:105360000C945529CF92DF92EF92FF920F931F93E7
:10537000CF93DF93C5ECD2E08DEBE82E82E0F82EE0
:1053800005EB12E0C880229661E08C2D0E94E11F9F
:10539000F701D080F2E0EF0EF11C61E08D2D0E944C
:1053A000E11F61E08C2D0E941A2061E070E08D2DDC
:1053B0000E94581FF80180810E5F1F4F60E070E06F
:1053C0000E94581FF2E0CD3CDF07E1F6DF91CF915C
:1053D0001F910F91FF90EF90DF90CF9008950F9362
:1053E0001F93CF93DF938B01EA01000F111F4F3FF3
:1053F000510509F03CF441308FEF58078CF057FF0E
:1054000003C010C0CFEFD0E0F801EB53FD4F61E0D7
:1054100080810E941A20F801E354FD4FBE0110C0A4
:10542000C1E0DFEFF801EB53FD4F60E080810E94A7
:105430001A20662777276C1B7D0BF801E354FD4F7C
:105440008081DF91CF911F910F910C94581FFC0127
:10545000EE0FFF1FE353FD4F80810C94441F82E346
:105460000E94502021E030E0892B11F020E030E054
:10547000C901089581E30E94502021E030E0892B8A
:1054800011F020E030E0C90108951F93CF93DF931E
:10549000162FD82FDD0FDD0FDD0FC0E0612F8C2F11
:1054A0008D0F0E94E11FCF5FC830C1F7DF91CF9110
:1054B0001F9108958F92AF92CF92EF920F9387E151
:1054C0008F9386E18F9385E18F9324E1822E33E1E0
:1054D000A32E42E1C42E51E1E52E00E12CE14BE187
:1054E0006AE186E196E00E94162884E196E00E9437
:1054F000B22983E196E00E94EF2882E196E00E94C3
:10550000EF280F900F900F9081E196E00F91EF90B0
:10551000CF90AF908F900C94EF288F929F92AF9284
:10552000BF92CF92DF92EF92FF92CF93DF93EC0185
:10553000688179818A819B81611571058105910559
:1055400021F464E279ED8BE597E02DE133EF41E062
:1055500050E00E94502D49015A019B01AC01A7EA7D
:10556000B1E40E94752D6B017C01ACEEB4EFA50196
:1055700094010E94832DC60ED71EE81EF91EF7FE69
:1055800006C081E0C81AD108E10880E8F80AC8829C
:10559000D982EA82FB82C701B6019F77DF91CF9162
:1055A000FF90EF90DF90CF90BF90AF909F908F9043
:1055B00008950C948D2A80E091E00C948D2A6093DC
:1055C00000017093010180930201909303010895FB
:1055D000F8940C94AF2D5058BB27AA270ED075C154
:1055E00066D130F06BD120F031F49F3F11F41EF4FE
:1055F0005BC10EF4E095E7FB51C1E92F77D180F351
:10560000BA17620773078407950718F071F49EF5BF
:105610008FC10EF4E0950B2EBA2FA02D0B01B9010E
:1056200090010C01CA01A0011124FF27591B99F018
:10563000593F50F4503E68F11A16F040A22F232F24
:10564000342F4427585FF3CF469537952795A79574
:10565000F0405395C9F77EF41F16BA0B620B730B1B
:10566000840BBAF09150A1F0FF0FBB1F661F771F8C
:10567000881FC2F70EC0BA0F621F731F841F48F441
:10568000879577956795B795F7959E3F08F0B3CFC7
:105690009395880F08F09927EE0F979587950895B1
:1056A000D9D008F481E008950CD00FC107D140F0A3
:1056B000FED030F021F45F3F19F0F0C0511139C134
:1056C000F3C014D198F39923C9F35523B1F3951B73
:1056D000550BBB27AA2762177307840738F09F5F13
:1056E0005F4F220F331F441FAA1FA9F333D00E2E82
:1056F0003AF0E0E830D091505040E695001CCAF7EF
:1057000029D0FE2F27D0660F771F881FBB1F2617B3
:1057100037074807AB07B0E809F0BB0B802DBF0186
:10572000FF2793585F4F2AF09E3F510568F0B6C09F
:1057300000C15F3FECF3983EDCF386957795679563
:10574000B795F7959F5FC9F7880F911D9695879537
:1057500097F90895E1E0660F771F881FBB1F621756
:1057600073078407BA0720F0621B730B840BBA0B14
:10577000EE1F88F7E095089504D06894B111D9C060
:105780000895BCD088F09F5790F0B92F9927B75152
:10579000A0F0D1F0660F771F881F991F1AF0BA95F5
:1057A000C9F712C0B13081F0C3D0B1E00895C0C0D4
:1057B000672F782F8827B85F39F0B93FCCF38695EB
:1057C00077956795B395D9F73EF490958095709548
:1057D00061957F4F8F4F9F4F0895E89409C097FBC5
:1057E0003EF490958095709561957F4F8F4F9F4FB8
:1057F0009923A9F0F92F96E9BB279395F6958795FC
:1058000077956795B795F111F8CFFAF4BB0F11F4BE
:1058100060FF1BC06F5F7F4F8F4F9F4F16C0882365
:1058200011F096E911C0772321F09EE8872F762F9B
:1058300005C0662371F096E8862F70E060E02AF0DC
:105840009A95660F771F881FDAF7880F96958795C8
:1058500097F90895990F0008550FAA0BE0E8FEEF9D
:1058600016161706E807F907C0F012161306E40724
:10587000F50798F0621B730B840B950B39F40A261D
:1058800061F0232B242B252B21F408950A2609F4FB
:10589000A140A6958FEF811D811D089597F99F67FF
:1058A00080E870E060E008959FEF80EC08950024A8
:1058B0000A941616170618060906089500240A9475
:1058C00012161306140605060895092E0394000CFB
:1058D00011F4882352F0BB0F40F4BF2B11F460FF8A
:1058E00004C06F5F7F4F8F4F9F4F089557FD9058B3
:1058F000440F551F59F05F3F71F04795880F97FB94
:10590000991F61F09F3F79F087950895121613064D
:105910001406551FF2CF4695F1DF08C0161617067C
:105920001806991FF1CF86957105610508940895B1
:10593000E894BB2766277727CB0197F908958ADF7C
:1059400008F48FEF08950BD0C0CFB1DF28F0B6DF99
:1059500018F0952309F0A2CFA7CF1124EACFC6DF14
:10596000A0F3959FD1F3950F50E0551F629FF00172
:10597000729FBB27F00DB11D639FAA27F00DB11DCB
:10598000AA1F649F6627B00DA11D661F829F222754
:10599000B00DA11D621F739FB00DA11D621F839FDB
:1059A000A00D611D221F749F3327A00D611D231FB1
:1059B000849F600D211D822F762F6A2F11249F57FF
:1059C00050408AF0E1F088234AF0EE0FFF1FBB1F22
:1059D000661F771F881F91505040A9F79E3F5105C1
:1059E00070F05CCFA6CF5F3FECF3983EDCF386957A
:1059F00077956795B795F795E7959F5FC1F7FE2B6C
:105A0000880F911D9695879597F9089523DF880B48
:105A1000990B0895DB018F939F930E94752DBF9181
:105A2000AF91A29F800D911DA39F900DB29F900DED
:105A30001124089597FB072E16F4009407D077FDE4
:105A400009D00E948C2D07FC05D03EF490958195DD
:105A50009F4F0895709561957F4F0895A1E21A2E8A
:105A6000AA1BBB1BFD010DC0AA1FBB1FEE1FFF1F02
:105A7000A217B307E407F50720F0A21BB30BE40B52
:105A8000F50B661F771F881F991F1A9469F7609599
:105A90007095809590959B01AC01BD01CF01089553
:105AA000052E97FB1EF400940E94672D57FD07D02A
:105AB0000E942E2D07FC03D04EF40C94672D5095B8
:105AC0004095309521953F4F4F4F5F4F08959095EA
:105AD0008095709561957F4F8F4F9F4F0895EE0F82
